:100000000C9408040C944F040C944F040C948F2D02
:100010000C944F040C944F040C944F040C944F0414
:100020000C944F040C944F040C94F5250C94B125BA
:100030000C94F2260C944F040C944F040C944F042F
:100040000C944F040C944F040C944F040C944F04E4
:100050000C944F040C94CE260C944F040C944F0433
:100060000C944F040C944F040C944F040C944F04C4
:100070000C944F040C944F040C944F040C944F04B4
:100080000C944F040C944F040C944F040C944F04A4
:100090000C944F040C944F040C944F040C944F0494
:1000A0000C944F040C944F040C944F040501090266
:1000B000A10185020901A1000509190129081500FE
:1000C0002501950875018102050109300931158165
:1000D000257F95027508810609381581257F9501D0
:1000E00075088106050C0A38021581257F95017572
:1000F000088106C0C005010980A101850319012AF4
:10010000B700150126B700950175108100C0050CD8
:100110000901A101850419012AA002150126A002E6
:10012000950175108100C00660FF0961A101096297
:10013000150026FF00952075088102096315002629
:10014000FF00952075089102C005010906A101056F
:100150000719E029E7150025019508750181029529
:1001600001750881010507190029FF150026FF0008
:100170009506750881000508190129059505750181
:100180009102950175039101C0000000000000007C
:10019000000000000000000000000000000000005F
:1001A000000000000000000000000000007E0F00C2
:1001B000D4FFFFFFC700000078000000000000002F
:1001C000002A2B28000000000000000000000000B2
:1001D0000000000029000000002C1E3420212224F1
:1001E000342627252E362D3738271E1F202122237F
:1001F0002425263333362E37381F04050607080911
:100200000A0B0C0D0E0F10111213141516171819D6
:100210001A1B1C1D2F3130232D3504050607080934
:100220000A0B0C0D0E0F10111213141516171819B6
:100230001A1B1C1D2F3130354C1E0F0500047F3F4B
:100240001F643214643214783C1E1E140A05000127
:100250000101010101010101020202020202020286
:100260000203030303030303030404040404040458
:10027000050505050506060606060707070707081C
:10028000080808090909090A0A0A0B0B0B0C0C0CCF
:100290000D0D0D0E0E0E0F0F0F1010111111121269
:1002A00013131414151516161717181819191A1AE6
:1002B0001B1B1C1D1D1E1E1F202021222223242447
:1002C000252626272829292A2B2C2D2D2E2F303183
:1002D0003232333435363738393A3B3C3D3E3F4095
:1002E0004142434445464748494A4C4D4E4F505180
:1002F0005354555658595A5B5D5E5F61626465663A
:1003000068696B6C6D6F7072737577787A7B7D7EC0
:100310008082838587888A8C8E8F91939596989A10
:100320009C9EA0A2A3A5A7A9ABADAFB1B3B5B7BA28
:10033000BCBEC0C2C4C6C9CBCDCFD1D4D6D8DBDDFC
:10034000DFE2E4E7E9EBEEF0F3F5F8FAFDFFFFAAF0
:100350007F55402223252628292A2C2D2F30323361
:100360003536383A3B3D3E4042434547494A4C4E7C
:100370005051535557595A5C5E6062646668696BA8
:100380006D6F71737577797B7D7F81838587898AAE
:100390008C8E90929496989A9C9E9FA1A3A5A7A8B4
:1003A000AAACAEAFB1B3B4B6B8B9BBBCBEBFC1C2E4
:1003B000C3C5C6C7C9CACBCCCDCED0D1D2D2D3D477
:1003C000D5D6D7D7D8D9D9DADADBDBDBDCDCDCDC95
:1003D000DCDDDDDDDDDCDCDCDCDCDBDBDBDADAD963
:1003E000D9D8D7D7D6D5D4D3D2D2D1D0CECDCCCBE5
:1003F000CAC9C7C6C5C3C2C1BFBEBCBBB9B8B6B403
:10040000B3B1AFAEACAAA8A7A5A3A19F9E9C9A9892
:10041000969492908E8C8A89878583817F7D7B7963
:10042000777573716F6D6B6968666462605E5C5A44
:100430005957555351504E4C4A4947454342403E07
:100440003D3B3A3836353332302F2D2C2A29282699
:100450002523221F002000210000001B0006001998
:100460000000001A00080015000000220017000A12
:100470000000001600070009000000050011001030
:1004800000000029001E002C002800E00004004CA1
:100490000000002B00140028002A00E1001D0000CD
:1004A00000000023002400250000003800E500299A
:1004B0000000001C0018000C000000260012000FB5
:1004C0000000000B000D000E000000E300360037B6
:1004D00000000027004C00E7000000330028000067
:1004E00000000013002A0000000000E2002C0000C1
:1004F0000000001F002000210000001B0006001962
:100500000000001A00080015000000220017000A71
:10051000000000160007000900000005001100108F
:1005200000000029001E002C002800E00004004C00
:100530000000002B00140028002A00E1001D00002C
:1005400000000023002400250000003800E50029F9
:100550000000001C0018000C000000260012000F14
:100560000000000B000D000E000000E30036003715
:1005700000000027004C00E70000003300280000C6
:1005800000000013002A0000000000E2002C000020
:100590000000001F002000210000001B00060019C1
:1005A0000000001A00080015000000220017000AD1
:1005B00000000016000700090000000500110010EF
:1005C00000000029001E002C002800E00004004C60
:1005D0000000002B00140028002A00E1001D00008C
:1005E00000000023002400250000003800E5002959
:1005F0000000001C0018000C000000260012000F74
:100600000000000B000D000E000000E30036003774
:1006100000000027004C00E7000000330028000025
:1006200000000013002A0000000000E2002C00007F
:100630000000001F002000210000001B0006001920
:100640000000001A00080015000000220017000A30
:10065000000000160007000900000005001100104E
:1006600000000029001E002C002800E00004004CBF
:100670000000002B00140028002A00E1001D0000EB
:1006800000000023002400250000003800E50029B8
:100690000000001C0018000C000000260012000FD3
:1006A0000000000B000D000E000000E300360037D4
:1006B00000000027004C00E7000000330028000085
:1006C00000000013002A0000000000E2002C0000DF
:1006D0000000001F002000210000001B0006001980
:1006E0000000001A00080015000000220017000A90
:1006F00000000016000700090000000500110010AE
:1007000000000029001E002C002800E00004004C1E
:100710000000002B00140028002A00E1001D00004A
:1007200000000023002400250000003800E5002917
:100730000000001C0018000C000000260012000F32
:100740000000000B000D000E000000E30036003733
:1007500000000027004C00E70000003300280000E4
:1007600000000013002A0000000000E2002C00003E
:1007700000000009025B00030100A0FA0904000068
:1007800001030101000921110100012240000705B8
:10079000810308000A090401000203000000092186
:1007A0001101000122220007058203200001070534
:1007B00003032000010904020001030000000921D5
:1007C00011010001227B000705840320000A1201A9
:1007D0000002000000080912554601000102000154
:1007E0001003500061006E00670061006500610049
:1007F000000018034B006500790074006500630079
:1008000074006F006E0069007800000004030904A2
:1008100011241FBECFEFDAE0DEBFCDBF04B603FE6A
:1008200027C08091650390916603A0916703B09102
:1008300068038730904BA740B04BD1F4109265030A
:1008400010926603109267031092680314BE84B777
:10085000877F84BF0FB6F894A89580916000886167
:1008600080936000109260000FBEE0E0F8E309950D
:1008700023E0A0EFB1E001C01D92A536B207E1F779
:1008800011E0A0E0B1E0E4E9F1E602C005900D92CC
:10089000A03FB107D9F70E9419270C9491300C940E
:1008A0000000E8EDF0E080818E7F80831092E2000E
:1008B0001092DA001092E100A0EEB0E08C9181601D
:1008C0008C9380818F77808319BCA7EDB0E08C91E9
:1008D0008E7F8C9380818F7E808310924A0308954F
:1008E0002091E4003091E50095E6A9012091EC000B
:1008F000822F817020FF06C08091E80080FF06C033
:1009000080E008952091E80022FD1AC080915703ED
:10091000882389F0853089F08091EB0085FD0FC038
:100920002091E4003091E50042175307F9F291500D
:10093000E1F684E0089582E0089583E0089581E07F
:100940000895EF92FF920F931F93CF937C018B0139
:100950000E947004C82F811117C08091E80085FDA6
:100960000BC08091E8008E778093E8000E947004AD
:10097000882399F3C82F08C0F70181917F018093E4
:10098000F1000150110949F78C2FCF911F910F9160
:10099000FF90EF9008958091590387FF13C08091D5
:1009A000E80082FF06C08091E8008B778093E80022
:1009B00004C0809157038111F2CF089580915703AD
:1009C0008823D9F38091E80080FFF8CF8091E80078
:1009D0008E77ECCF982F9093E900242F762F50E05C
:1009E000891731F07091EC002091ED005091F000EA
:1009F00021FD07C09F5F973071F78093E90081E088
:100A000008953091EB003E7F3093EB003091ED0084
:100A10003D7F3093ED003091EB0031603093EB007F
:100A20007093EC002093ED005093F0002091EE00C5
:100A300027FDE0CF80E00895CF92DF92EF92FF9202
:100A40000F931F93CF93DF93C8EDD0E088818F7E03
:100A50008883E7EDF0E080818160808384E082BF5D
:100A600081E080934A0388818E7F888302EE10E0C4
:100A7000F80110821092DA0081EEC82ED12CF60116
:100A8000108288818F7788838881806888838881B5
:100A90008F7D888319BC10925703109258031092CF
:100AA00056031092550390EEE92EF12CF701808148
:100AB0008B7F808388818160888342E060E080E072
:100AC0000E94EA04F60180818E7F8083F801808194
:100AD00081608083808188608083F70180818E7F40
:100AE0008083888180618883DF91CF911F910F91EE
:100AF000FF90EF90DF90CF900895FC0180915F030D
:100B00009091600386179707A0F06115710529F48D
:100B10009091E8009E779093E80090E06115710550
:100B200051F4911108C08091E80082FF34C080E048
:100B30000895BC01F2CF809157038823C1F185301D
:100B4000C1F18091E80083FD30C08091E80082FD12
:100B5000EACF8091E80080FFE1CF8091F3002091FF
:100B6000F200382F6115710519F02830310558F061
:100B700091E02830310509F090E02091E8002E77CF
:100B80002093E800CBCF81918093F10061507109EF
:100B90002F5F3F4FE7CF80915703882341F0853087
:100BA00041F08091E80083FFBECF81E0089582E0AC
:100BB000089583E00895089580914C03089587E790
:100BC00097E7909301088093000888E19AE00FB6B8
:100BD000F894A895809360000FBE90936000FFCFBB
:100BE0009C014FB7F8948091430390914403A091E6
:100BF0004503B09146034FBF821B930B08952FB757
:100C0000F89460914303709144038091450390915F
:100C100046032FBF08952FB7F89480914303909116
:100C20004403A0914503B09146032FBF089520913E
:100C30004003309141032817390771F09093410325
:100C400080934003E0913E03F0913F03309721F001
:100C50000084F185E02D0994089520913C033091A2
:100C60003D032817390771F090933D0380933C03AF
:100C7000E0913E03F0913F03309721F00680F78129
:100C8000E02D09940895FC01680F791F8FEF91E31F
:100C90002191822728E030E087FF09C0880F89274B
:100CA00021503109C9F7E617F70791F70895880F22
:100CB000F7CFFA01811101C0FB0109940895E1ED1C
:100CC000F2E01182828184608283089580913703EB
:100CD000982F9E7F29F48170826080933703089556
:100CE0008635E8F381708465F8CFAF92BF92DF92CA
:100CF000EF92FF920F931F93CF93DF93082F162F3E
:100D0000E901E42FF0E0E25BFD4F611110C0E491D6
:100D10005E2F4E2F4983E8835A83DF91CF911F9135
:100D20000F91FF90EF90DF90BF90AF900895E62E67
:100D3000F12C4491D42EE42FF0E026E0829FC001F4
:100D400011242FEF30E0B9010E94232F802F90E073
:100D5000880F991F55E5569FD001579FB00D11245C
:100D60008A1B9B0B982F990F890F5901AE18BF084A
:100D7000AE9ED001AF9EB00DBE9EB00D11245B2F74
:100D8000189F80011124012F11275901A01AB10ABF
:100D9000AE9E8001AF9E100DBE9E100D1124590114
:100DA000A81AB108AE9CC001AF9C900DBE9C900DDE
:100DB0001124892F9927281B390B2E9FC0012F9FA3
:100DC000900D3E9F900D1124E92F62307105A1F026
:100DD00050F46115710509F49DCF6130710581F002
:100DE000EB2F512F97CF6430710569F080F066309A
:100DF000710509F48FCFF4CFE42F4B2F592F8ACFF1
:100E0000E42F412F87CFEB2F542F492F83CF4B2F28
:100E10005D2DE12F7FCF0E940B069C019091C702B0
:100E20008091C802982B21F03093C4022093C30212
:100E30009091C9028091CA02982B21F03093C2028E
:100E40002093C102E0913E03F0913F03309749F0B7
:100E500082E08093C5020480F581E02D85EC92E06C
:100E6000099408954091C702803F59F48091C802C7
:100E700087FF0DC01092C80241110BC01092BF0233
:100E800008C0813F81F48091C80218169CF3442366
:100E900081F08091C9029091CA02892B09F05AC051
:100EA0001092BE020895823F49F447FFF0CF10929E
:100EB000C7028091C8028111ECCFE0CF833F19F4C3
:100EC0001416ACF3E4CF9091C902893F29F41916A6
:100ED000F4F61092C902DBCF8A3F19F497FFD7CFFF
:100EE000F8CF9091CA028B3F29F497FFD0CF109290
:100EF000CA02CDCF8C3F19F41916CCF3C8CF9CE0B1
:100F0000980F953090F4845F990B21E030E0B9019F
:100F100002C0660F771F8A95E2F7CB01809590910A
:100F2000C60289238093C602B2CF8D3F31F48091EF
:100F3000C0028E7F8093C002AACF8E3F21F48091A1
:100F4000C0028D7FF7CF8F3F09F0A1CF8091C00203
:100F50008B7FF0CF08958091C00280FD16C081FD87
:100F600016C082FD16C08091BE028823A1F088328F
:100F700080F428E0829FC001112468E270E00E94A2
:100F8000372F862F672B39F0089582E0089584E08B
:100F9000089588E0089581E008958091C00280FD61
:100FA00014C081FD14C082FD16C08091BF02882349
:100FB00081F0843180F422E3829FC001112464E136
:100FC00070E00E94372F862F08958CE0089589E104
:100FD000089585E0089582E30895803F31F40E94EA
:100FE000CD0781958093C8020895813F19F40E942E
:100FF000CD07F8CF823F31F40E94CD0781958093D1
:10100000C7020895833F19F40E94CD07F8CF893FA6
:1010100029F40E94AB078093C90208958A3F21F406
:101020000E94AB078195F7CF8B3F31F40E94AB074D
:1010300081958093CA0208958C3F19F40E94AB07F2
:10104000F8CF9CE0980F953070F4845F990B21E005
:1010500030E001C0220F8A95EAF78091C602822B08
:101060008093C60208958D3F31F48091C002816063
:101070008093C00208958E3F21F48091C002826067
:10108000F7CF8F3FB9F78091C0028460F1CF80E045
:101090000895789408959091900292FF06C0282FA9
:1010A00028712830F9F4877F846093FF06C0282FC9
:1010B00028712831F1F4877E84612091910220FF0C
:1010C00006C0382F38713830D9F4877F816021FF0E
:1010D00006C0282F28712831D1F4877E816194FDC4
:1010E000877E0895282F24712430F9F68B7F88603D
:1010F000DCCF282F2471243101F78B7E8861DDCF6E
:10110000382F3171313019F78E7F8860E0CF282F6A
:101110002171213121F78E7E8861E1CFCF93DF935A
:10112000EC0182389105A9F1D8F58133910509F4D4
:1011300096C048F58932910509F48AC08A9709F466
:1011400095C0C11521E5D20708F0BCC0C11530E536
:10115000D30708F014C1C83ED10508F09CC0C13EB9
:10116000D10560F5C83AD10508F087C0C53AD10568
:1011700008F0FDC0C130D10509F12097F9F0C43065
:10118000D105E0F440C08533910509F45AC0C997F0
:10119000C1F680919002837089F0C0EED0E00EC05D
:1011A000833E910599F170F4803E910501F1823EF4
:1011B000910539F68091900282FD21C0CE01DF9128
:1011C000CF910895863E910561F1873E910571F1B9
:1011D000843E910509F0B5CF8091910281FFEECF59
:1011E00080919002C7EED0E084FD0DC0E7CF8091E2
:1011F000900280FD12C19091910290FFDFCFC3EE6B
:10120000D0E084FFDBCFD0E0C0E0D8CF8091900267
:1012100082FD06C19091910290FDBFCF84FFCECF99
:10122000F2CF8091900283FDDDCFC8CF80919002F4
:1012300083FDF9C09091910291FFF0CFC4EED0E010
:10124000BDCF8091900285FFB9CFC9E2D0E0B6CF83
:101250008091900285FFB2CFC5E3D0E0AFCF8091FF
:10126000900286FFABCFCAE2D0E0A8CF8091900277
:1012700086FFA4CFC1E3D0E0A1CFCF3BD10518F6C4
:10128000C85AD0E0CC0FDD1FCC59DE4F0990D88171
:10129000C02DD46493CFC11540E2D40758F4C115D2
:1012A00081E0D80708F08ACFC03FD10508F4ABCF62
:1012B000D06584CFC11590E4D90708F4A4CFDF70BE
:1012C000D06A7CCFC11525E5D20700F5C11534E5FC
:1012D000D30708F08AC0C11543E5D40708F071C0F0
:1012E000C11582E5D80708F467C0CE01837099273D
:1012F00021E030E002C0220F331F8A95E2F7C69545
:10130000C69580E2C89FE001112452C0C11599E53D
:10131000D907A8F4C11528E5D20708F06BC0C1159C
:1013200036E5D30708F06FCF8C2F0E944B08C82FEB
:10133000D0E0DC2FCC27CC27DF71D0623FCFC115A6
:101340004AE5D40708F45BC0CE019056811590425F
:1013500008F059CF8D2F8F710E944B0890E0982F85
:10136000882788279F719C012C2BE901E6CFC55A5D
:10137000D0E0CF59DE4FC881D0E0D0641FCFCE017E
:10138000E4E096958795EA95E1F783702C2F2695F2
:101390002695237040E2249F90011124382B8C2F36
:1013A0008370C1E0D0E002C0CC0FDD1F8A95E2F768
:1013B000C22BD32BDC6802CFDC2FCC27C16FD06AC5
:1013C000FDCECE018370992721E030E002C0220FCC
:1013D000331F8A95E2F7C695C69590E2C99FE00152
:1013E0001124C22BD32BDA68E9CEDC2FCC27C46FB3
:1013F000D06AE4CEDC2FCC27C06FD06ADFCE8C2F32
:101400008F700E944B0834E0D695C7953A95E1F766
:10141000CF709C2FEC01D069D1CEC9E3D0E0CECE05
:10142000C2EED0E0CBCEC6EED0E0C8CE0C94FF0525
:1014300080915F02811110925F02089580959091D2
:101440005E02982390935E02089580915E029091CF
:101450005D02892B90915C02892B8093F20190911F
:101460005F02992391F0892B8093F20120E084EFB1
:1014700091E0FC013191CF0131112F5FF1E08A3F02
:101480009F07B9F721110E94180AE0913E03F091DD
:101490003F03309731F00280F381E02D82EF91E03D
:1014A00009940895E4EFF1E09191891303C0DF01FD
:1014B00011971C9291E0EA3FF907B1F70895A4EF64
:1014C000B1E0EFEF90E02D91821751F0EF3F19F46A
:1014D000211101C0E92F9F5F9630A9F7EF3F09F472
:1014E00008950E2E000CFF0BEE50FE4F82830895E0
:1014F00080915A0290912902981301C008958F5F3C
:101500008770FACF990F990F990F890F982F9770BD
:1015100086958695869523E0829FF0011124EB5FE6
:10152000FD4F50E040E080E0219130E0092E02C004
:10153000369527950A94E2F721703327042E01C0CF
:10154000220F0A94EAF7822B4F5F5F4F4330510519
:1015500059F70895990F990F990F890F982F977040
:1015600041E001C0440F9A95EAF7869586958695E5
:1015700093E0899FF0011124EB5FFD4F30E020E004
:1015800070E05191DF011197CB01022E02C09695B8
:1015900087950A94E2F781708195852784238527B2
:1015A0008C932F5F3F4F2330310559F7089590E01A
:1015B00080E00E942D0690E080E00E9417061092C5
:1015C0005D0210925C020E94250A86E0E5ECF2E0E2
:1015D000DF011D928A95E9F71092BF021092BE02B8
:1015E0001092C0020C940B07809364030C94D70AEA
:1015F00080916403982F9670963019F488600C944B
:10160000F40A877FFCCF21E030E001C0220F8A95E9
:10161000EAF720958091640382230C94F40A909158
:101620005B028095892380935B02282F277091F4B9
:10163000282F082E000C330B9217130659F09091A7
:10164000910292FD07C08595859585950E94030BB3
:1016500010925B02089521E030E001C0220F8A95CC
:10166000EAF780916403822B0C94F40A8093600261
:101670000C94D70A882321F00E941E0A0C94250A94
:101680000895882339F090915E02982B90935E0222
:101690000C94250A0895F894E82FE295EF70F0E095
:1016A00031A1282F2F7081E090E001C0880F2A958A
:1016B000EAF7982F9095932391A392A1892B82A367
:1016C0000C944908F894E82FE295EF70F0E031A10E
:1016D000282F2F7081E090E001C0880F2A95EAF74B
:1016E000382B31A392A18095892382A30C944908B9
:1016F0008093470370934903609348038091570395
:101700008430F9F48093E9008FEF9091E8008150E4
:1017100095FD06C095ED9A95F1F700008111F5CF82
:101720008091E80085FF0DC050E040E063E070E08C
:1017300087E493E00E94A1048091E8008E77809373
:10174000E8000895BC0184E00C94780BBC0183E0B0
:101750000C94780B9C0184E08093E9009FEF8091CA
:10176000E800915085FD06C085ED8A95F1F70000EF
:101770009111F5CF8091E80085FF0CC050E040E06A
:1017800066E070E0C9010E94A1048091E8008E77B4
:101790008093E8000895CF93DF93EC0181E080937C
:1017A000E9008FEF9091E800815095FD06C095ED1E
:1017B0009A95F1F700008111F5CF8091E80085FF3F
:1017C00014C050E040E068E070E0CE010E94A10447
:1017D0008091E8008E778093E80088E0FE01ADE418
:1017E000B3E001900D928A95E1F7DF91CF910895D2
:1017F00060915C018091370380FF20C080915B0184
:1018000043E0849FC001112489529D4F539A2BB10C
:10181000277F3BB138605FB7F894FC01649FE00D0F
:10182000F11D1124BF0168177907D1F45FBF8FE55F
:1018300094E00197F1F700C00000089580915D01E8
:1018400090915E0123E0829FF0011124E952FD4F47
:101850008917A0F61182108212828F5F3396F8CF1B
:10186000FC014191CF01E8E03BB9000000C047FF17
:101870002BB9440F000000C000C000C02BB900C04D
:10188000EA9591F7D0CF0F931F93CF93DF93EC019D
:1018900010E000E090915F019017110609F06CF4E0
:1018A0000E94F80B8C8190E00196817099278C83BF
:1018B000DF91CF911F910F91089520915D01A801B3
:1018C000420F511D9A01220F331F240F351F295239
:1018D0003D4F4C8160913903809138039695901764
:1018E000110651F04CF0442349F040913A030E9414
:1018F00075060F5F1F4FCECF4423B9F340E0F7CFFB
:101900008F929F92AF92BF92CF92DF92EF92FF920F
:101910000F931F93CF93DF93EC014C81042F10E0C2
:101920009801D8010E9482309B01AC010E944D3089
:101930004B015C01E0E2F0E0E01BF10BA5E5B0E05B
:10194000AC019B010E944D306B017C019F01DF01C6
:101950000E94582F9B01AC010E9458309B01AC01A2
:10196000280D391D4A1D5B1DC701B6010E9460305C
:10197000F22E822F90E039E23F1560F143E0249F80
:101980009001112435952795122F109500E085E5DB
:10199000E82EEF1880915F01081758F10E94F80BAC
:1019A0009C8181E0992319F0903219F48FEF809394
:1019B0005A0180915A01890F8C83DF91CF911F9139
:1019C0000F91FF90EF90DF90CF90BF90AF909F90DE
:1019D0008F90089525E530E0B901681B790B9B01D4
:1019E000220F331F260F371F37FFCCCF2F5F3F4FFC
:1019F000C9CF8E2D01FD8F2D20915D01622F600FCB
:101A00007727771F9B01220F331F260F371F29527D
:101A10003D4F412F609139030E9475060F5FBACF89
:101A2000EF92FF920F931F93CF93DF93EC018C8182
:101A3000811109C081E08C831092D50292E09093CD
:101A400059018093580180915D0190915E0123E0DE
:101A5000829FF0011124E952FD4F891768F110E0CF
:101A600003E060915F01161768F10E94F80B809106
:101A700058012091D502280F2093D5029091590149
:101A8000980F90935901191654F4022E000C330B41
:101A900040915F014150550B2417350734F0819573
:101AA00080935801813009F41C82DF91CF911F91FE
:101AB0000F91FF90EF9008951182108212828F5F34
:101AC0003396CBCFE12EF12C70E0C7010E94372F67
:101AD00020915D01820F482F50E02091D502022E07
:101AE000000C330BE216F306BCF020915901022ED4
:101AF000000C330B2E153F057CF0809F90011124C4
:101B000029523D4F40913A03609139038091380347
:101B10000E9475061F5FA5CFFA01EE0FFF1FE40FAD
:101B2000F51FE952FD4F118210821282F3CF8F927E
:101B30009F92AF92BF92CF92DF92EF92FF920F935C
:101B40001F93CF93DF93EC018A81BB24BA9480FD6D
:101B500002C0BB24B394A0905F018C81811109C0A5
:101B600081E0B81228C08FEF8A0D8093D40281E003
:101B70008C83F12CE12C4CE0942EEA14F8F00E94B6
:101B8000F80B8091D40291E0B9125FC0811158C066
:101B900080915F0181508093D4021C82DF91CF91AC
:101BA0001F910F91FF90EF90DF90CF90BF90AF907B
:101BB0009F908F9008951092D402D9CF00915D012B
:101BC0000E0D1F2D111DC801880F991F080F191F19
:101BD00009521D4FF80111821082128234E0C32E87
:101BE000D12C812C8091D402880D8D302CF1692D5F
:101BF0000E94152F892F082E000C990B8E159F051A
:101C000091F480913A038C9DA0018D9D500D11247B
:101C10005595479555954795980160913903809161
:101C200038030E9475068B0CF1E0CF1AD108D1F66B
:101C30008FEFE81AF80AA1CF87FFDDCF8A0DDBCF3F
:101C400081508093D402BC82A9CF90E0019660912C
:101C50005F0170E00E94372F8093D4028C839ECF67
:101C6000EF92FF921F93CF93DF93EC0110E0EE24ED
:101C7000EA94F12C60915F01161770F00E94F80B46
:101C80009A818C8190FF27C08F5F8C83DF91CF91E9
:101C90001F91FF90EF90089520915D01422F410F19
:101CA0005527551FCA019A01220F331F280F391FCC
:101CB00029523D4F70E0C7010E94372F962F8C812B
:101CC00040913A0360913903199F800D11240E94BD
:101CD00075061F5FCFCF8150D8CF9091370390FF0B
:101CE00014C090915D0120915E0133E0939FF0015B
:101CF0001124E952FD4F921710F00C94F80B8183D8
:101D0000608342839F5F3396F6CF08950F931F93AE
:101D1000CF93DF9300D00F92CDB7DEB78C018091C7
:101D2000D60281110AC09E012F5F3F4F4FEF6FEF28
:101D30000E9475068A818093D602F8016481613021
:101D400069F08091D60240E0662361F040E06230A5
:101D500011F44091D60280E060E004C06091D602A8
:101D600040E080E00E946D0EF801848190E00196D1
:101D700063E070E00E94372F84830F900F900F90E4
:101D8000DF91CF911F910F910895CF93DF9300D0F2
:101D90000F92CDB7DEB79091370390FF0AC09E0136
:101DA0002F5F3F4F0E9475064B8169818A810E9497
:101DB0006D0E0F900F900F90DF91CF910895CF93FC
:101DC000DF93EC01E7E3F3E0438162818C810E94C1
:101DD000C50E8C818F5F8C83DF91CF910895CF9357
:101DE000DF93EC01EC81F0E0ED5AFC4F4491E7E326
:101DF000F3E0628181810E94C50E8C818F5F8C83AC
:101E0000DF91CF910895E7E3F3E080818E7F8083B7
:101E10000E945F06E1EDF2E08281816082832FEF14
:101E200080E792E0215080409040E1F700C0000040
:101E30000C94F80B9F92AF92BF92CF92DF92EF92E9
:101E4000FF920F931F93CF93DF937C015B016A0195
:101E500080918B0201E010E08A3010F40AE010E07B
:101E6000C1E0D0E0F894B501C701F6010995982EBC
:101E70000E944908911004C021960C171D076CF4AC
:101E8000892DDF91CF911F910F91FF90EF90DF90FF
:101E9000CF90BF90AF909F900895CC9F9001CD9F21
:101EA000300D300D112490E080E045E34A95F1F7C4
:101EB0000000019682179307C1F7D4CF8091610289
:101EC000811110C08091D80080618093D8008AE190
:101ED0008A95F1F700C08091D90080FF0AC081E0A7
:101EE0008093610281E090916102913009F080E07D
:101EF000089582E0809361020E945104109257037A
:101F0000F1CF0E945E0F882351F0E0913E03F091E3
:101F10003F03309721F00190F081E02D099480E09B
:101F20000895882309F452C0823871F40E94810F09
:101F300081FF4CC089E30E945F0A0E94250A89E361
:101F40000E94520A0C94250A833859F40E94810F8A
:101F500080FF3CC083E50E945F0A0E94250A83E55A
:101F6000EFCF843859F40E94810F82FF2FC087E49D
:101F70000E945F0A0E94250A87E4E2CF9CEF980F37
:101F8000913AF0F290E2980F983050F4877091E017
:101F900001C0990F8A95EAF7892F0E941E0AD2CFB5
:101FA0009BE5980F933020F490E080E00C942D0690
:101FB00098E5980F973120F490E080E00C94170694
:101FC000803F20F00E9432070C940B0708950F9376
:101FD0001F930E945E0F882321F01F910F910C9494
:101FE000FF050E94FF0500918C0210918D02209147
:101FF0008E0230918F02600F711F821F931F1F91FD
:102000000F9108950E945E0F81110C940B060E949F
:10201000E70FCB010895CF93C82F882309F490C010
:102020008238C1F40E94810F81FD8AC089E30E9439
:102030005F0A0E94250A2FEF81EE94E02150804034
:102040009040E1F700C0000089E30E94520ACF915E
:102050000C94250A8338A1F40E94810F80FD70C082
:1020600083E50E945F0A0E94250A2FEF81EE94E02B
:10207000215080409040E1F700C0000083E5E5CFAB
:102080008438A1F40E94810F82FD5AC087E40E9427
:102090005F0A0E94250A2FEF81EE94E021508040D4
:1020A0009040E1F700C0000087E4CFCF8CEF8C0FA9
:1020B000813A68F4E4EFF1E08191C817D9F121E0A9
:1020C000EA3FF207C9F78C2F0E945F0AC0CF80E277
:1020D0008C0F883068F4C77021E030E001C0220F17
:1020E000CA95EAF780915E02822B80935E02AFCFA1
:1020F000EBE5EC0FE33040F4F0E0EF59FE4F808168
:1021000090E0CF910C942D06E8E5EC0FE73150F408
:10211000F0E0EE0FFF1FEC59FE4F80819181CF91CF
:102120000C941706C03F60F08C2F0E94ED07CF91F2
:102130000C940B078C2F0E94520A0E94250AC3CFD1
:10214000CF9108951F93CF93DF93182FD0E0C0E075
:10215000893311F4C0E5D0E0812F0E940B10209745
:1021600031F4812FDF91CF911F910C94910F8FE962
:102170009FE00197F1F700C000002197F0CF0F9387
:102180001F93CF93DF93C62FD42F022FFC018281A0
:102190008823A1F0609363030E940B06909362036F
:1021A00080936103C77081E001C0880FCA95EAF788
:1021B000DF91CF911F910F910C94410B809163039C
:1021C000681335C080916103909162030E94F0050D
:1021D000883C910560F510E21D0FCD17B9F080E243
:1021E0008C0F883040F4C77081E001C0880FCA9519
:1021F000EAF70E943A0B183048F481E09D2F97705F
:1022000001C0880F9A95EAF70E94410B802F0E9427
:10221000A210183098F4D77081E001C0880FDA95C9
:10222000EAF7DF91CF911F910F910C943A0BC77091
:1022300081E001C0880FCA95EAF7F3CFDF91CF9113
:102240001F910F910895CF93DF93C7E4D3E060E02F
:10225000CE010E94FA2F2196C11584E0D807B9F764
:10226000DF91CF9108956F927F928F929F92AF925C
:10227000BF92CF92DF92EF92FF920F931F93CF9373
:10228000DF9383E5C82E84E0D82E07ED10E0E80147
:10229000C05AD10936011CC0F50185909490692D72
:1022A000C7010E94FA2F682DC70101960E94FA2FDC
:1022B00082E0A80EB11C82E0E80EF11CCE15DF050D
:1022C00059F780E1680E711C60960C171D0731F0FC
:1022D0007E0180E1E81AF1085301DECF00561F4F5E
:1022E00080EAC80ED11C073F83E0180781F6DF9112
:1022F000CF911F910F91FF90EF90DF90CF90BF9003
:10230000AF909F908F907F906F900895CF93C82F3C
:102310006FEF811162E283E290E00E94FA2F6FEF8B
:10232000C11161E184E290E00E94FA2F6FEFC111C8
:1023300063E185E290E0CF910C94FA2F80E00E9457
:10234000861160E086E290E00E94FA2F0E9433112D
:102350000E94231181E00C948611CF93C0919102C9
:10236000C2FB992790F9981799F080FBC2F9C093A6
:1023700091026091900284E090E00E94FA2F6C2F0D
:1023800082E290E00E94FA2F82E0CF910C940F0B32
:10239000CF9108950F931F93CF93DF9320E1629F16
:1023A000E001112450E0440F551FC40FD51F30EA3F
:1023B000839FC00DD11D1124CE0187960E94E62F68
:1023C000082F10E0102F0027CE0188960E94E62FDC
:1023D0009801282BC901DF91CF911F910F9108958A
:1023E000462F853038F47A3028F4683018F4672F97
:1023F0000C94CA1190E080E00895CF92DF92FF9292
:102400000F931F93CF93DF936C010091640380912E
:102410006002082BC7E0D0E010E0FC2EC8010C2EB3
:1024200002C0959587950A94E2F780FD0CC021972C
:10243000A0F7F12C8F2DDF91CF911F910F91FF907D
:10244000DF90CF900895B6018C2F0E94F0110E946A
:102450008E08019761F3EECFCF93DF93EC010E94DA
:10246000FD11BE010E94F011DF91CF910C948E08F6
:10247000FC01808191810E942C12292F2F7092954E
:102480009F7092509E3078F4E92FF0E0ED56FF4CAB
:102490000C944B2F803F19F020F4883E20F481E00B
:1024A0000895843FE1F380E00895883EC0F3813FC2
:1024B000D1F7F5CF822F869586958695089583E28C
:1024C00090E00E94E62F823289F484E290E00E943C
:1024D000E62F813159F485E290E00E94E62F91E0E9
:1024E000833109F090E0892F8170089580E0FCCF5E
:1024F000CF9384E090E00E94E62FC82F82E290E024
:102500000E94E62F982F8C2FCF9108954F925F92C3
:102510006F927F928F929F92AF92BF92CF92DF92F3
:10252000EF92FF920F931F93CF93DF93FC01628092
:10253000448081E08483E3E5F3E07490E2EDF3E02E
:10254000E491812C75E0972EF2E0CF2EDD24D39418
:10255000AA24AA94B12C55245A94E7190E2F10E0FE
:1025600080915F01881690F0DF91CF911F910F91BC
:10257000FF90EF90DF90CF90BF90AF909F908F90A3
:102580007F906F905F904F900C94F80BE82CF12C9B
:1025900082E0861568F09E9CF0019F9CF00D11244E
:1025A000E550FD4F8091380380838091390381830A
:1025B000411023C09E9CF0019F9CF00D1124E5501A
:1025C000FD4F1382128220915D01C701820F911D80
:1025D0009C01220F331F280F391F29523D4F9E9C0B
:1025E000F0019F9CF00D1124E550FD4F4281618167
:1025F00080810E9475068394B3CF9E9CE0019F9CCE
:10260000D00D1124C550DD4F8B818823E9F0815016
:102610008B83859DC00111246C8170E00E94232F63
:10262000FB01FF27ED5AFC4F8491E82FE719E59D48
:10263000C0011124B8010E94232F80913A03689FA2
:10264000B00111247A83BFCF0E94B32F20913A03A7
:10265000269521582C9DA0012D9D500D1124452F0C
:102660005527841795070CF0AECF82E0861588F4C5
:102670000E94B32FB5010E94372F88830E94B32F89
:10268000209139032695622F70E00E94372F280F82
:1026900029839E9CF0019F9CF00D1124E550FD4F75
:1026A000128280913A03893C58F088EC9E9CF0019C
:1026B0009F9CF00D1124E550FD4F8483838383CFCD
:1026C0008431A0F784E1F2CF60913703669570E022
:1026D0004BE050E08DE491E00E94C32F892B19F468
:1026E00081E08093D2020E9402109093CC028093EA
:1026F000CB028091D30284608093D3020895CF925D
:10270000DF92EF92FF926B017C010E946606B70197
:10271000A60188E090E0FF90EF90DF90CF900C94BE
:102720000C30AF92BF92CF92DF92EF92FF920F9355
:102730001F93CF93DF9300D00F92CDB7DEB7182F42
:10274000F62E042FE22E9091370390FF3AC0E92F26
:10275000E695AE2FB0E0AA54BE4F8C918093D10283
:102760009E7F9230E1F59E012F5F3F4F812F0E94A7
:1027700075064B8169818A810E946D0E80913803B4
:10278000811308C0809139038F1104C080913A03EE
:10279000801729F08091D30282608093D302109336
:1027A0003803F092390300933A03EE2051F0609120
:1027B0003703709138038091390390913A030E9456
:1027C0007F130F900F900F90DF91CF911F910F917A
:1027D000FF90EF90DF90CF90BF90AF900895823040
:1027E00019F400913A03CACF863019F410913803D6
:1027F000C5CF8930D9F3893109F6E9518E2F81701F
:10280000D82EE695F0E0E25BFC4FA590B490C12C89
:10281000BB2460915F01C61618F00E94F80BAECF82
:102820002C2D30E0A29EC001A39E900DB29E900D73
:10283000112470E00E94232F812FD11013C0860F26
:1028400040915D01420F532F511D9A01220F331FFA
:10285000240F351F29523D4F402F6F2D0E947506C2
:10286000C394D7CF861BECCFE7E3F3E0438121E1AC
:10287000421B08F440E021E0628181810C949113B5
:10288000E7E3F3E0438121E1420F08F44FEF21E059
:10289000628181810C949113E7E3F3E0628121E18D
:1028A000621B08F460E021E0438181810C94911364
:1028B000E7E3F3E0628121E1620F08F46FEF21E0CA
:1028C000438181810C949113E7E3F3E0818121E05E
:1028D0004381628188500C949113E7E3F3E0818196
:1028E00021E043816281885F0C94911380913B03C6
:1028F000882319F0815080933B03609137037091D6
:1029000038038091390390913A030C947F1380919E
:102910003B03833018F48F5F80933B036091370350
:10292000709138038091390390913A030C947F138E
:102930009091370390FF3BC0917081112EC092603F
:10294000909337038091D30281608093D3026623F2
:1029500051F0609137037091380380913903909161
:102960003A030E947F1360913703669570E04BE055
:1029700050E08DE491E00E94C32F892BA9F00E94C2
:102980005F0681E08093CE0220E040913A0360919F
:102990003903809138030C9491138B3210F09465B5
:1029A000CFCF880F982BCCCF0E946413EACF089525
:1029B000809137038695815009F48AE261E00C9496
:1029C00098148091370386958F5F8B3208F081E0F1
:1029D00061E00C9498149091370390FF07C096958E
:1029E000981720F0961710F40C94E11461E00C9401
:1029F0009814E7E3F3E083E0808311828FEF828312
:102A000083831482A1EDB2E012968C9112978360B9
:102A100012968C9360817181828193810C947F13D3
:102A200069EE7EEF90E080E00E94183060E082E086
:102A300090E00E94FA2F60E083E090E00E94FA2F7D
:102A40001092600260E084E090E00E94FA2F60E063
:102A500082E290E00E94FA2F60E085E090E00E9420
:102A6000FA2F60E086E090E00E94FA2F6FEF87E097
:102A700090E00E94FA2F40E050E0BA0188E090E038
:102A80000E940C3060E08DE090E00E94FA2F40E060
:102A900050E0BA0188E190E00E940C3060E087E1EC
:102AA00090E00E94FA2F40E050E0BA018CE190E003
:102AB0000E940C3070E060E080E290E00E941830EC
:102AC00040E050E0BA0188E190E00E940C3080E0E4
:102AD0000E9486110E949E1140E050E0BA018FE0F2
:102AE00090E00E940C3040E050E0BA0183E190E0B9
:102AF0000C940C30CF93DF93CDB7DEB728970FB689
:102B0000F894DEBF0FBECDBF85E0E7E3F3E0DE0162
:102B1000119601900D928A95E1F78091D1029091E2
:102B2000D202A091D3028E839F83A88728854091EB
:102B30008702509188026091890270918A023FB7A2
:102B4000F8948091430390914403A0914503B09180
:102B500046033FBF841B950BA60BB70B843691052C
:102B6000A105B10510F4222319F18091390190914A
:102B70003A018D589D4F4091380150E04930510540
:102B800010F048E050E0BE016F5F7F4F0E94DD2FE4
:102B900085E090E00E94552E892BB1F40E94FF053C
:102BA00060938702709388028093890290938A02CF
:102BB0001092D30281E028960FB6F894DEBF0FBEC4
:102BC000CDBFDF91CF91089580E0F5CFCF93DF9314
:102BD00000D000D0CDB7DEB740916F0250917002A7
:102BE00060917102709172022FB7F8948091430343
:102BF00090914403A0914503B09146032FBF841BDD
:102C0000950BA60BB70B84369105A105B10568F1AC
:102C10000E94E70F6E5F7F4F8F4F9F4F69837A83CC
:102C20008B839C8380912F01909130018D589D4F13
:102C300040912E0150E04530510510F044E050E045
:102C4000BE016F5F7F4F0E94DD2F84E090E00E9405
:102C5000552E892B61F40E94FF0560936F027093DB
:102C60007002809371029093720281E001C080E053
:102C70000F900F900F900F90DF91CF9108956F926A
:102C80007F928F929F92AF92BF92CF92DF92EF92FC
:102C9000FF920F931F93CF93DF930F92CDB7DEB7C1
:102CA000862E5A016901682E880F7708C3010E9499
:102CB000552E892B09F088C08AE0869DF001879DFA
:102CC000F00D1124EC5FFE4F458150E04115510598
:102CD00011F041E050E08AE0869DF001879DF00D03
:102CE0001124EC5FFE4F668177816D587D4FCE01D8
:102CF00001960E94DD2FF50140815181628173812F
:102D00002FB7F8948091430390914403A091450319
:102D1000B09146032FBF841B950BA60BB70B8436CF
:102D20009105A105B10540F4B701C8010E94430611
:102D30009981891709F44FC0082C000C9908C40127
:102D40000E94552E892B91F0B12C8B2D0F90DF9185
:102D5000CF911F910F91FF90EF90DF90CF90BF9098
:102D6000AF909F908F907F906F9008958AE0889D9C
:102D7000F001899DF00D1124EC5FFE4F458150E07C
:102D8000E416F50608F4A7018AE0889DF001899D04
:102D9000F00D1124EC5FFE4F668177816D587D4FF9
:102DA000C6010E94DD2FB701C8010E944306998128
:102DB0008913CACF0E94FF05F50160837183828366
:102DC0009383BB24B394C1CFB12CA701B801C60132
:102DD0000E94DD2FBACFBB24B394F7CFEF92FF92BE
:102DE0000F931F93CF93DF930F92CDB7DEB7EE24EF
:102DF000E394F12C0AE712E09E012F5F3F4F4BE670
:102E000052E063E082E00E943F16182F8823D9F039
:102E1000E0919F02F0E0ED55FD4F89819081891B83
:102E2000282F90E005C0215090819F5F9083912FC3
:102E30001216CCF3282F87FD20E0821B81110CC0D5
:102E400091110E94160A812F0F90DF91CF911F914F
:102E50000F91FF90EF9008958F5F90819150908334
:102E6000912FECCFCF92DF92EF92FF920F931F93AF
:102E7000CF93DF9300D000D00F92CDB7DEB76B01B8
:102E800085E0E82EF12C04E712E09E012F5F3F4F12
:102E900047E652E061E080E00E943F16882349F057
:102EA00095E0FE013196A2E6B2E001900D929A956E
:102EB000E1F795E0E2E6F2E0D60101900D929A95F5
:102EC000E1F70F900F900F900F900F90DF91CF913F
:102ED0001F910F91FF90EF90DF90CF90089590E0B9
:102EE00080E00E94F42F893E9E4F11F40C945F12F3
:102EF00080E0089510925E02E4EFF1E086E0DF01E9
:102F00001D928A95E9F70C94D70A1F93CF93DF930C
:102F1000CDB7DEB7AA970FB6F894DEBF0FBECDBF10
:102F200089E593E02091F100DC012D93CD01B3E020
:102F300081369B07B9F780915A03833009F472C038
:102F4000B8F4813009F449C0823009F4B3C08091EB
:102F5000E80083FF8BC28091590390915A039A3005
:102F600008F084C2E92FF0E0EF55FF4C0C944B2F92
:102F70008A3009F48EC08B3009F471C0893039F77A
:102F800080915903813219F780915D0390915E031E
:102F9000009711F00297D9F68091E800877F80931F
:102FA000E8008091E80082FF38C09091F3008091A2
:102FB000F200029731F48091F100813011F08630F7
:102FC00021F48091F10080934C038091E8008B778D
:102FD0008093E8000E94CB04BACF80915903813AD4
:102FE00009F0B5CF8091E800877F8093E800809159
:102FF0005D0390915E03892B61F468E08DE493E0BA
:1030000070E00E947D058091E8008B778093E80056
:103010009ECF60E090E080E0F3CF80915703811174
:10302000C0CF95CF80915903813A09F090CF80911C
:103030005D0390915E03892B09F089CF8091E800B0
:10304000877F8093E8008091E80080FFFCCF80912B
:1030500060018093F1008091E8008E77B9CF809174
:103060005903813209F073CF80915D0390915E0323
:10307000892B09F06CCF8091E800877F8093E8006E
:103080000E94CB0480915B03809360010E947A17B9
:103090005ECF80915903813209F059CF8091E800C9
:1030A000877F8093E8000E94CB0480915C0380932B
:1030B0004B034DCF80915903813A09F048CF80915D
:1030C000E800877F8093E8008091E80080FFFCCFD4
:1030D00080914B03BECF803899F0823809F0C6C189
:1030E00080915D038F70873008F0C0C18093E90044
:1030F0008091EB0085FB882780F91092E90006C0DB
:103100008091550390915603911182609091E8004F
:10311000977F9093E8008093F1001092F1008091E6
:10312000E8008E779FC1882309F48DC1823009F0B1
:103130009DC180915B03811190C180915D038F706F
:103140002FEF280F263008F091C18093E9002091DD
:10315000EB0020FF82C1933031F48091EB0080625C
:103160008093EB007AC19091EB0090619093EB001B
:1031700021E030E001C0220F8A95EAF72093EA00AF
:103180001092EA008091EB008860EACF81116EC155
:1031900010915B031F778091E3008078812B8093EF
:1031A000E3008091E800877F8093E8000E94CB04D1
:1031B0008091E80080FFFCCF8091E30080688093DD
:1031C000E30082E0111183E0809357034FC18058E0
:1031D000823008F04BC120915B0330915C032C3DA1
:1031E000E3E03E07A1F583E08A838AE289834FB753
:1031F000F894DE01139620E03EE051E2E32FF0E088
:1032000050935700E49120FF03C0E295EF703F5FB9
:10321000EF708E2F90E0EA30C0F0C7968D939D93AB
:103220002F5F243159F74FBF8091E800877F80934B
:10323000E8006AE270E0CE0101960E947D0580916F
:10324000E8008B778093E80011C1C096E7CF8091AA
:103250005D0390915E03432F55274330510509F4D8
:103260004AC078F54130510509F47AC08BE590E009
:10327000E3E7F7E04230510509F0F8C02091E8009B
:10328000277F2093E80020915F033091600382172D
:10329000930708F49C0140E02115310509F065C051
:1032A000411163C08091E80082FDC9CF809157032E
:1032B000882329F2853019F28091E80083FFF2CF4C
:1032C000BECF4132510509F43CC04232510509F0EC
:1032D000CDC08330910508F0C9C0FC01EE0FFF1F7F
:1032E000EC51FE4F0190F081E02D8F519E4FDC019B
:1032F0008C9190E01AC0332721303105D1F021158F
:10330000310561F02230310509F0B0C0E0EEF7E0A0
:10331000E4918E2F90E0E0EEF7E007C0ECE0F8E0FB
:10332000E4918E2F90E0ECE0F8E0009709F49EC065
:10333000A5CFE2EFF7E0E4918E2F90E0E2EFF7E027
:10334000F4CF8330910508F091C0880F991FFC01DC
:10335000E651FE4F0190F081E02D89E090E08ECFA4
:1033600082E190E0EEECF7E089CF8091570388236B
:1033700009F465CF853009F462CF8091E80083FDC0
:103380005ECF8091E80082FD8DCF8091E80080FFC4
:1033900083CF9091F3008091F2002115310519F04F
:1033A0008830910550F041E0089709F040E08091A5
:1033B000E8008E778093E8006FCF44914093F1004E
:1033C0003196215031090196E8CF803809F04EC07E
:1033D0008091E800877F8093E80080915803809374
:1033E000F1009DCE811142C010915B031230F0F5C7
:1033F0008091E800877F8093E800109358030E9433
:10340000CB04112311F084E005C08091E30087FD17
:10341000FACF81E08093570342E061EC81E00E94A3
:10342000EA0442E261EC84E00E94EA0442E261ECD8
:1034300082E00E94EA0442E260EC83E00E94EA0437
:103440008091570313C080915B03813079F481E050
:10345000933009F080E0809356031092E900809148
:10346000E800877F8093E8000E94CB048091E80009
:1034700083FF0AC08091E800877F8093E8008091F5
:10348000EB0080628093EB00AA960FB6F894DEBF43
:103490000FBECDBFDF91CF911F9108953F924F9204
:1034A0005F926F927F928F929F92AF92BF92CF92D4
:1034B000DF92EF92FF920F931F93CF93DF9300D091
:1034C00000D00F92CDB7DEB78C01FC0183819481CF
:1034D000892B31F08081918189238F3F09F078C554
:1034E0000F900F900F900F900F90DF91CF911F9141
:1034F0000F91FF90EF90DF90CF90BF90AF909F9093
:103500008F907F906F905F904F903F9008950E94B2
:10351000FD11F82E682F89819A810E94AA0A69817B
:103520007A818F2D0E94F0117C01F801828188231D
:1035300009F441C5970122513F452031310508F07A
:103540000DC58FEF93E00E94E62FFEEEEF0E57E4DD
:10355000852E53E0952E8823A1F180915B02877020
:1035600009F4BECFF8018281882309F4B9CF809194
:10357000910282FDB5CF82E00F900F900F900F90D7
:103580000F90DF91CF911F910F91FF90EF90DF90FF
:10359000CF90BF90AF909F908F907F906F905F90F3
:1035A0004F903F900C940F0B811424E09206A9F2E7
:1035B000C4010E94E62F811101C0EA943FEF831AF3
:1035C000930AE110F1CF1C821B82442443944AE009
:1035D000342E74018FEFE81AF80AC4010E94E62F16
:1035E00089831A82882309F4B8CF9FEF980F93300C
:1035F00000F58A83498292E0890E911CC7010E94DE
:10360000E62F8B83882309F4A8CFFE0131967F0132
:10361000F70120812223E9F2213009F049C091818C
:103620008281913041F4F2E0EF0EF11C0E94A21071
:1036300009C04701EACF923049F422E0E20EF11CC2
:103640000E940B103FEFE31AF30AE2CF933031F4FC
:1036500032E0E30EF11C0E94910FF4CF943021F080
:103660008FEFE81AF80AEECF92E0E90EF11C30E095
:1036700020E0B7016F5F7F4FF70141818053990BC5
:103680008A30910550F021503109E0F28FE99FE036
:103690000197F1F700C00000F6CF329EF001339E93
:1036A000F00D11249C012E0F3F1F842F7B01E1CFD1
:1036B000E22FF0E0E754FE4F5490822F86958695D6
:1036C000869590E0FC01E755FE4F64902770712CC1
:1036D000022E02C0759467940A94E2F7E1E06E222C
:1036E0007724FC01E756FE4FA490B12C022E02C0B5
:1036F000B594A7940A94E2F7F1E0AF22BB24FC0151
:10370000E757FE4FC490D12C02C0D594C7942A9598
:10371000E2F721E0C222DD246114710419F081EE88
:103720000E940B10A114B10419F086EE0E940B1038
:10373000852D0E94A210AB2819F086EE0E94910FF1
:10374000672819F081EE0E94910FCD2809F47ACFF5
:103750008CE26CCF81E00E942B0B0E94F80AFDCE18
:1037600081E00E94030BF9CF82E0F5CF95EFE916D7
:103770009CE5F90609F46AC008F464C027E245EE46
:1037800066EEF6EFEF16FCE5FF0609F410C4882399
:1037900009F42FC41092630323E0E2162DE5F2062C
:1037A00008F05BC03AEFE3163CE5F30630F4C701DE
:1037B00082509C45449708F056C00E94781290931E
:1037C00091028093900290E1E9169CE5F90609F4D4
:1037D00031C108F0A3C0F8E0EF16FCE5FF0609F4DC
:1037E0001BC108F06CC034E0E3163CE5F30609F4B5
:1037F00005C108F04EC092E0E9169CE5F90609F40F
:10380000F7C0809190028260E3E0EE16ECE5FE06E0
:1038100009F4F1C060919002F090910284E090E090
:103820000E94FA2F6F2D82E290E00E94FA2F0E94F0
:103830007A1793CE27E245EE65EEB9C326E241EE54
:1038400060EEB5C327E245EE64EEB1C326E241EE79
:1038500062EEADC328E241E0EFCF81E6E8168DE5E8
:10386000F80609F4AACFF6E1EF16FCE5FF0609F029
:1038700086C480915E028A7A91E009F490E0909388
:1038800004028111FCC089E20E945F0A0E94250A9D
:1038900064CE809190028061F6E0EF16FCE5FF06B1
:1038A00009F4A9C080919002886027E0E2162CE517
:1038B000F20608F4A0C08091900280629CC08091C2
:1038C00090028D7F3CE0E3163CE5F30609F493C0DB
:1038D00078F4809190028C609AE0E9169CE5F906F4
:1038E00009F489C008F49CC0809190028E7F83C047
:1038F00080919002877FFEE0EF16FCE5FF0609F459
:103900007AC0809190028B7F2FE0E2162CE5F206C0
:1039100008F471C0809190028F7E6DC03CEFE31679
:103920003CE5F30609F482C0A0F594E1E9169CE5B4
:10393000F90609F493C098F4F2E1EF16FCE5FF06EE
:1039400009F47CC0809190028F7B23E1E2162CE584
:10395000F20608F450C080919002837F4CC03AEF89
:10396000E3163CE5F30609F44DC008F051C095E1BB
:10397000E9169CE5F90609F04DCF8091900282FB93
:10398000992790F921E0922790FB82F990FB83F927
:1039900032C0E114EDE5FE0609F456C0A0F48091B2
:1039A000910283602EEFE2162CE5F20671F1809110
:1039B00091028D7F3FEFE3163CE5F30630F18091F5
:1039C00091028C7F22C082E0E8168DE5F80609F4AA
:1039D00054C008F44CC0E1E6EE16EDE5FE0609F031
:1039E00019CF90919002892F8F7E94FF806103C040
:1039F000809190028160809390020CCF8091900220
:103A00008460F9CF8091910281608093910202CF0E
:103A1000809191028260F9CF809190028064EBCF17
:103A20000E947A17809190028068E5CF8091910280
:103A30008E7FEBCF809190028F7DDDCF0E947A1731
:103A4000809190028F77D7CF80919102982F909597
:103A500091708E7F892B90FB81F9D7CF0E947A17C6
:103A600090919002892F97FB87F98058C4CF61E02D
:103A70008EE090E00E94FA2FCDCE60E0F9CF85E392
:103A800003CF80910402811104C089E20E94520A8E
:103A9000FDCE85E3FBCF81608093370361E086959F
:103AA0000E9498145ACD48ED54E161EE74E10E94F1
:103AB000590653CD41EE54E168ED74E1F8CF4DE67F
:103AC00054E164E674E1F3CF4CE454E168E574E159
:103AD000EECF44E354E160E474E1E9CF40E454E123
:103AE00064E374E1E4CF47E854E166E774E1DFCFD3
:103AF00061E081E0D5CF65E082E00E94EB142DCD3E
:103B000068E086E0FACF64E18FE0F7CF67E185E116
:103B1000F4CF62E289E1F1CF61E083E2C1CF0E949C
:103B20007A179FEFE4E3FCE09150E040F040E1F7CA
:103B300000C000000E94DF0581E047C380E045C36C
:103B4000C7010E94820AD82E51C32F2D2F70C22E7A
:103B50008F2D807F19F0C29490EFC922DD20B9F03B
:103B6000CC2069F080E28E0D883010F0811009C001
:103B700080915E02C82AC0925E020E94250A8E2DA4
:103B80004DC080915D02C82AC0925D02F6CF8E2D95
:103B90000E94910FCC2009F443C080E28E0D883042
:103BA00010F0811004C08C2D0E941E0A06C0C09423
:103BB00080915D02C822C0925D020E94250A30C039
:103BC0003F2D3F70C32E8F2D807F803219F0C2941D
:103BD00080EFC822882089F081E0881609F47FC030
:103BE000DD2009F489C0BB2009F47FC0F80185817C
:103BF00080FFC5CF8F70858378C02091910222FF0E
:103C00004BC0DD2009F442C0CC2039F080915E0227
:103C1000C82AC0925E020E94250A80E00E940B1012
:103C2000292D2850330B2430310510F40E94810FC8
:103C3000AA2009F455CC80915B0280FD51CCF8019B
:103C400012828595859585950E942B0BC8010E944F
:103C50004E1A80915B028595859585950F900F9002
:103C60000F900F900F90DF91CF911F910F91FF90C8
:103C7000EF90DF90CF90BF90AF909F908F907F900C
:103C80006F905F904F903F900C94030B80E00E94E8
:103C9000910FCC2029F287CFDD20A1F090915F0217
:103CA0008C2D892BB11003C00E94410BB9CFE1E0EC
:103CB000BE12FACF22FDB4CF981709F4B1CF80938A
:103CC0005F02AECFB11006C00E94180A8C2D0E9470
:103CD0003A0BA6CFF1E0BF1609F4A2CFF5CFDD2055
:103CE00031F025E02B1508F49BCF8C2DDDCF34E08F
:103CF0003B1508F495CFEACFBB2041F3F9E38F12CF
:103D000009C02FEF37EE83E0215030408040E1F7CB
:103D100000C000008E2D0E94910F82CF8F2D8695BE
:103D20008695837061F0813009F07ACFC701937076
:103D3000D11002C090E080E00E94170671CFC70149
:103D40009370D11002C090E080E00E942D0668CFF1
:103D50008E2DDD2029F00E94ED070E940B0760CF19
:103D60000E943207FACF8F2D837091F5D11058CF72
:103D70004E2D429546954770440F440F8E2D8F70FF
:103D8000042E01C0880F0A94EAF72E2D2071E4FE5C
:103D900007C02FE030E001C0220F4A95EAF72095D6
:103DA0003F2D369536953370323069F050F440919E
:103DB0006002313029F0822B84230E94360B30CFF1
:103DC000842B822BFACF282B809160028227F5CF9B
:103DD0008695DD2011F08F2D8170882309F420CF86
:103DE0004E2D429546954770440F440F8E2D8F708F
:103DF000042E01C0880F0A94EAF72E2D2071E4FEEC
:103E000007C02FE030E001C0220F4A95EAF7209565
:103E10003F2D369536953370323069F050F440912D
:103E20006403313029F0822B84230E94F40AF8CEF7
:103E3000842B822BFACF282B809164038227F5CF25
:103E40009F2D9F70F92EDD2029F0892F0E942B0BCA
:103E50008E2D2ACF8E2D0E943A0B8F2D0E94030BA0
:103E6000DFCE8E2DE2EF8E16B1F1E81570F0F0EF97
:103E70008F16D1F021EF821691F0DD2009F45EC09B
:103E8000B1107DCE8F2D8F712AC033EF831651F183
:103E900094EF8912F2CF8091910282FF2FC08F2D73
:103EA0008F71DD20D9F21BC0DD2081F0E4E0EB153D
:103EB00008F4B6CE2F2D2F7181E090E001C0880F5D
:103EC0002A95EAF7909164038927AFCFF5E0FB15B7
:103ED00008F4A6CEEFCF8F2D8F71D110BFCF0E94E7
:103EE0002B0B9ECE80E0DD2009F49FCF9F2D9F718C
:103EF00081E001C0880F9A95EAF797CFDD2099F00D
:103F00002F2D2F71F22E822F0E942B0B8091910268
:103F100082FD07C038E0F39EC001112483608093C6
:103F20005B028F2DDCCF81E00E940F0B81E08B15AF
:103F300008F076CE82E00E940F0B72CEBB2059F0C3
:103F4000893309F0E7CE9FEFE7EEF3E09150E040D0
:103F5000F040E1F7DDCE8F2D8F7180CFF0E1EF16CD
:103F6000FFE5FF0609F4F6CB21E1E2162FE5F206A4
:103F700009F4FACB93EFE9169CE5F90609F45ECC57
:103F800008F0F4CBF8EDEF16FCE5FF0609F452CC8F
:103F900029EDE2162CE5F20609F45CCC37EDE316C8
:103FA0003CE5F30609F0F3CB26E241EE61EEC801F1
:103FB0000E94BF10D2CA30E1E3163FE5F30609F4D0
:103FC000CFCB91E1E9169FE5F906A1F682E0C9CBD6
:103FD00085E0DE01119601900D928A95E1F7F801D6
:103FE000228189819A81211192CA0E94820AF82E27
:103FF00096CAF6E1EF16FCE5FF0609F442CD809182
:104000005E0282722CECE2162CE5F20609F46BCD0E
:1040100008F073C096ECE9169CE5F90609F44FCD5B
:1040200008F042C0F3ECEF16FCE5FF0609F43BCDC7
:1040300050F532ECE3163CE5F30609F0C8C0809178
:10404000370380FF28CD8E7F80933703609137033D
:10405000709138038091390390913A030E947F1345
:104060000E945F068091D30281608093D3022FEF7C
:1040700030E782E0215030408040E1F700C000008E
:104080000E94F80B6ACA94ECE9169CE5F90609F45B
:1040900011CD44E654E16DE674E1E5ECEE16ECE595
:1040A000FE0609F404CD93C0F9ECEF16FCE5FF061B
:1040B00009F40FCD88F437ECE3163CE5F30609F478
:1040C00003CD48E554E16CE474E198ECE9169CE515
:1040D000F90609F4ECCC7BC0EAECEE16ECE5FE0642
:1040E00009F4FCCC46E754E167E874E1FBECEF1619
:1040F000FCE5FF0609F4DBCC6AC021EDE2162CE5F5
:10410000F20609F400CDB8F48EECE8168CE5F8065A
:1041100009F4F1CC08F4ECCCEFECEE16ECE5FE067D
:1041200009F4EECC6EE089E0F0EDEF16FCE5FF0659
:1041300009F4E3CC4CC024EDE2162CE5F20609F4B8
:10414000E8CC78F482EDE8168CE5F80609F4DECCCC
:1041500061E088E193EDE9169CE5F90609F4A0CC4D
:1041600036C0E5EDEE16ECE5FE0609F4D5CC6AE2C4
:1041700085E2FDE5EF16FF0609F4BFCC28C02AE56D
:10418000E2162DE5F20609F4D7CC68F4E1148CE5CB
:10419000F80609F4C4CC9EEDE9169CE5F906B9F4DD
:1041A0000E941015DAC9EBE5EE16EDE5FE0609F4FE
:1041B000C5CCFCE5EF16FDE5FF0649F480919102C0
:1041C00082FB882780F991E089270E94AD11F801D0
:1041D0008281E080F180882309F4B2CCC7010E947B
:1041E000FD11D82E682FC7010E94AA0AB7018D2D94
:1041F0000E94F0110E948E087C01882EF801D28066
:10420000B580B2943FE0B32280915B028770C1F029
:10421000AD2CDD20B1F08F2D807F803421F080E245
:104220008E0D883068F08091910282FD09C082E095
:104230000E940F0B80915B028770AA24A3948111C6
:10424000A12C9F2C92942FE09222FBE0F91508F408
:10425000E7CCE92DF0E0E555FF4C0C944B2F1F9374
:10426000CF93DF9380912802807FA9F4809125026B
:10427000882389F080915A02D0912902609123020B
:1042800070912402A0912602B0912702C62FC72365
:1042900016E0D81304C0DF91CF911F91089590E0EC
:1042A000109711F0CF3F19F401968770F2CF189F45
:1042B0009001199F300D1124F901E65DFD4F4181F8
:1042C0004713F2CF40814613EFCF42814111ECCF2B
:1042D000438154814A1B5B0B483C510528F7809170
:1042E00028028F70806180932802F901E15DFD4F03
:1042F00080818F708061808383E292E00E944E1AF9
:10430000DF91CF911F910C94780AAF92BF92CF9218
:10431000DF92EF92FF920F931F93CF93DF93CDB76E
:10432000DEB761970FB6F894DEBF0FBECDBF8C012C
:1043300085E0F801DE011D9601900D928A95E1F766
:10434000F801E28083E2A82E82E0B82E6091260276
:10435000709127026115710509F432C19091230211
:1043600040912402892F84238F3F09F429C12081A1
:104370003181C380D480F0902502F601E61BF70B53
:10438000FF2009F4E8C080912802582F507FE83CB4
:10439000F10508F0ABC0511177C0FE2C431321C0CA
:1043A00092131FC0E1101DC08F708061809328029E
:1043B000C5010E944E1A80912802F80185838F2D35
:1043C00061960FB6F894DEBF0FBECDBFDF91CF91DF
:1043D0001F910F91FF90EF90DF90CF90BF90AF9023
:1043E0000895CD2829F0822F83238F3F09F003C140
:1043F00080E0F82FF170DF2E80FF3CC080915A02E0
:104400004091290256E0841315C02D873E878D8583
:104410009E850E942C12292F22952F702230F0F0B9
:10442000243018F59F70F1F0F8019581907FD1F458
:10443000D12C1EC090E0589FF001599FF00D11241F
:10444000E65DFD4F6181361306C06081261303C00F
:104450006281E6120FC001968770D5CF9F7011F070
:10446000882331F3805E883018F3C8010E944E1A09
:10447000FD2CA5CFEE2009F4A2CF80912802816007
:1044800080932802F12C9BCF431306C0921304C0E3
:10449000F801EE2009F479C0C8010E94381288237F
:1044A00009F1EE20F9F080912802803270F020911D
:1044B00023023091240238872F831986DB86CA862F
:1044C0008C87CE0107960E944E1A86E0F801A3E27F
:1044D000B2E001900D928A95E1F70E942F21FF240E
:1044E000F3946DCFC8010E944E1AF9CF51110AC042
:1044F00083E292E00E944E1A86E0F50111928A95BD
:10450000E9F7C0CF43130FC092130DC0E1100BC0E9
:10451000F8018583C8010E944E1A86E0F5011192C8
:104520008A95E9F74CCFC8010E9438128823D1F24E
:10453000EE20C1F280912802803238F220912302CD
:10454000309124023A8329831B82DD82CC828E83C0
:10455000CE010196B8CFE83CF105F8F6FE2CEE202E
:1045600009F243131FC092131DC08091280280FDE1
:1045700010C0982F907F69F0F8018583903F31F04B
:10458000982F907F905F8F70892B8583C8010E9440
:104590004E1A86E0F801A3E2B2E001900D928A95EE
:1045A000E1F70DCFC8010E94381281118ECF8091A2
:1045B0002802816080932802C8010E944E1AFFCE13
:1045C000EE2009F48FCFC8010E943812F82E8823FC
:1045D00009F488CF86E0F801A3E2B2E001900D92E1
:1045E0008A95E1F780912302909124020E942C1277
:1045F0000E942F21E4CE81E08E25FBCE1F93CF9326
:10460000DF93CDB7DEB767970FB6F894DEBF0FBE66
:10461000CDBF4B8B5C8B6D8B7E8B8F8B6111109222
:104620005D021A8A198A85E0FE017396DE011D96E5
:1046300001900D928A95E1F786E0FE013D96DE013C
:10464000179601900D928A95E1F7CE0107960E9488
:104650008521882389F016E080915A0290912902E1
:10466000891349C067960FB6F894DEBF0FBECDBF61
:10467000DF91CF911F91089586E0FE013796DE010C
:10468000119601900D928A95E1F78A859B85892B79
:1046900011F38F81988589238F3FE9F220912902B8
:1046A00030E0C90101968770992740915A02481756
:1046B000190671F40E947A171092290210925A0278
:1046C00086E0E3E2F2E0DF011D928A95E9F7C3CFCD
:1046D00096E0929FD001939FB00D1124A65DBD4F2F
:1046E000FE01319601900D929A95E1F7809329028F
:1046F0000E94780AB0CF819FC0011124865D9D4F32
:104700000E948521882309F4ADCF80915A0290E060
:1047100001968770992780935A029ECF8F929F921D
:10472000AF92BF92CF92DF92EF92FF920F931F93BF
:10473000CF93DF93CDB7DEB72F970FB6F894DEBFD8
:104740000FBECDBF8E010F5F1F4F8AE0D8011D92B3
:104750008A95E9F744E9C42E41E0D42EF12CE12CEE
:1047600099249394F601A1906F01FFEFAF1691F198
:104770008A2D0E94620B00C0EEE9F1E030E020E0FB
:10478000B12C81918F3F09F4BBC0A82FA295AF70C7
:10479000B0E090964C9150E08F7002C055954795CF
:1047A0008A95E2F740FDACC0892D022E01C0880F2A
:1047B0000A94EAF7B82A2F5F3F4F2430310509F7F2
:1047C0008A2D0E944B0B20EA2A95F1F7F801EE0D95
:1047D000FF1DB0828FEFE81AF80A95E0E916F104A0
:1047E00009F69EE9C92E91E0D92E24E0E22EF12CA3
:1047F000AA24A394B12CD6018D916D018F3FE1F1D4
:104800000E94620B00C0C5010E2C01C0880F0A94E3
:10481000EAF7782F682F6095D80184E9882E81E027
:10482000982EF40191914F018D919D0121503109F4
:104830009F3F09F467C0492F42954F7050E0FA013D
:1048400040A150E09F7002C0559547959A95E2F7B8
:1048500040FD58C0872BF9018083F9E98F16F1E0FC
:104860009F06F9F6F601319780818F3F11F00E9483
:104870004B0B20EA2A95F1F78FEFE81AF80A98E037
:10488000E916F10409F0B7CF4AE050E0B80182E937
:1048900092E00E94D02F7C01892B41F08AE0F80140
:1048A000A2E9B2E001900D928A95E1F710919D0284
:1048B000E114F10449F181E08093FD010E940B06AF
:1048C0009093FC018093FB018091FB019091FC018E
:1048D0000E94F005059778F0A2E9B2E0E12FF0E040
:1048E000EC54FD4F87E992E02D9121938A179B07A5
:1048F000D9F71092FD01EF2859F081E090E060C0F7
:1049000080E058CF8623A7CF8091FD018111DCCFB5
:104910000E945E0FD82EE0919D02DE011B967D0164
:10492000882309F486C085E01D928A95E9F70E2F49
:1049300010E00C541D4F80918B028A3008F053C058
:1049400042E357E1B701C8010E941A0F882309F416
:104950005FC04EEE56E1B701C8010E941A0F8823CE
:1049600009F456C046EE55E1B701C8010E941A0F7E
:10497000882309F44DC04AE755E1B701C8010E94F8
:104980001A0F882309F444C010928B02E0919C0214
:10499000F0E0BF016C547D4FD7019E01205F3F4F77
:1049A00080E0FB014191BF019D91491731F0AF01BA
:1049B00041505109FA0190838D2DA217B30789F751
:1049C0002F960FB6F894DEBF0FBECDBFDF91CF910B
:1049D0001F910F91FF90EF90DF90CF90BF90AF901D
:1049E0009F908F9008958091FE019091FF010E9409
:1049F000F005843F914008F0A3CFE0919C02F0E0E5
:104A0000EC54FD4F1082118212821382148275CFF2
:104A100080918B028F3F31F08F5F80938B028A30C1
:104A200008F4B4CF0E940B069093FF018093FE011F
:104A3000E4CFF0E0EC54FD4FF89485E0A4E7B2E059
:104A400001900D928A95E1F765E070E084E792E0CD
:104A50000E944306809373020E944908F894E091F3
:104A6000A602F0E0ED55FD4F80818B8780937A029E
:104A700061E070E0C7010E944306809379020E94C2
:104A80004908F894C0907B02D0907C02E0907D02AF
:104A9000F0907E028091000290910102A0910202AA
:104AA000B0910302C816D906EA06FB06D1F0C092FF
:104AB0000002D0920102E0920202F09203020E94F0
:104AC0005E0F81110EC00E94FF05C61AD70AE80AC0
:104AD000F90AC0928C02D0928D02E0928E02F0927E
:104AE0008F020E944908F89480918602882379F108
:104AF00080FF0DC080917F0280FF2DC09091370311
:104B000091609093370360E086950E94981480919D
:104B1000860281FF09C020E04091820260918102FB
:104B2000809180020E9491138091860282FF06C0CC
:104B300080918502882391F00E94641380918602FF
:104B400083FF03C081E08093CE02109286020E9410
:104B5000490880E035CF0E94030FD9CF0E945F063D
:104B6000EDCF1F920F920FB60F9211242F933F9308
:104B70004F935F936F937F938F939F93AF93BF9365
:104B8000CF93DF93EF93FF93D091E900DF70809193
:104B9000EC00C82FC17080FDC0E81092E900809140
:104BA000F000877F8093F00078940E948517109220
:104BB000E9008091F00088608093F000CD2BCF70E9
:104BC000C093E900FF91EF91DF91CF91BF91AF9139
:104BD0009F918F917F916F915F914F913F912F9115
:104BE0000F900FBE0F901F9018951F920F920FB647
:104BF0000F9211242F933F934F935F936F937F9363
:104C00008F939F93AF93BF93EF93FF938091E100B6
:104C100082FF09C08091E20082FF05C08091E1001F
:104C20008B7F8093E1008091DA0080FF24C0809127
:104C3000D80080FF20C08091DA008E7F8093DA0058
:104C40008091D90080FF9DC080E189BD82E189BD4E
:104C500009B400FEFDCF81E08093570380914A03A1
:104C6000811109C00E9451040E941C058091E2003C
:104C700084608093E2008091E10080FF17C0809102
:104C8000E20080FF13C08091E2008E7F8093E200FB
:104C90008091E20080618093E2008091D800806280
:104CA0008093D80019BC85E0809357038091E10080
:104CB00084FF2BC08091E20084FF27C080E189BD82
:104CC00082E189BD89B5982F917080FFFBCF8091DB
:104CD000D8008F7D8093D8008091E1008F7E8093F3
:104CE000E1008091E2008F7E8093E2008091E200FB
:104CF00081608093E20080915803882309F447C0C3
:104D000084E080935703809157038091E10083FFF3
:104D100027C08091E20083FF23C08091E100877F5C
:104D20008093E10082E080935703109258038091B2
:104D3000E1008E7F8093E1008091E2008E7F80937E
:104D4000E2008091E20080618093E20042E060E056
:104D500080E00E94EA048091F00088608093F00077
:104D6000FF91EF91BF91AF919F918F917F916F9143
:104D70005F914F913F912F910F900FBE0F901F9019
:104D8000189519BC1092570310924A0374CF809162
:104D9000E30087FD93E090935703B5CF78941F927B
:104DA0001FB61F9211248F939F93AF93BF9380914F
:104DB000430390914403A0914503B09146030196AB
:104DC000A11DB11D8093430390934403A093450319
:104DD000B0934603BF91AF919F918F911F901FBEDB
:104DE0001F9018951F921FB61F9211248F939F93A7
:104DF000AF93BF9380914203811113C0809143030D
:104E000090914403A0914503B09146034196A11DA2
:104E1000B11D8093430390934403A0934503B09343
:104E20004603BF91AF919F918F911F901FBE1F901E
:104E30001895CDB7DEB7AA970FB6F894DEBF0FBEB0
:104E4000CDBF84B7877F84BF0FB6F894A8958091B3
:104E50006000886180936000109260000FBE80E85F
:104E600090E00FB6F89480936100909361000FBEBC
:104E700085B7806885BF85B7806885BF87E498E07F
:104E80009093F1018093F0010E9451040E941C054F
:104E90008091E20084608093E200789480915703CF
:104EA0008823A1F01091E9001F709091EC00892FE8
:104EB000817090FD80E8182B1092E9008091E80045
:104EC00083FD0E9485171F701093E90082E084BD66
:104ED00093E095BD9AEF97BD80936E0010928C027F
:104EE00010928D0210928E0210928F020E945F1219
:104EF000811102C00E949E110E945E0F80934001AA
:104F000080914001882309F47CC010925B0186E007
:104F100080935C010E945E0F81110E94482D809158
:104F200040018091400195E0811190E090939D02B5
:104F300085E0891B80939C0204E911E059E9C52EA4
:104F400051E0D52E7801F70181917F018F3F11F05B
:104F50000E944B0BCE14DF04B1F784E90E944B0B87
:104F600086E60E944B0B87E90E944B0B86EC0E9461
:104F70004B0B84E90E944B0B86E60E944B0B87E9A2
:104F80000E944B0B86EC0E944B0BF80181918F0124
:104F90008F3F11F00E944B0BC016D106B1F7E2E92A
:104FA000F2E0A4EBB2E011921D9222E0EC39F2079C
:104FB000D1F70E946F17811102C00E94101582E084
:104FC00090E00E94E62F8093A9020E9478129093AD
:104FD0009102809390020E948E238FE39CE90197B7
:104FE000F1F700C000000E948E238091B40280FF80
:104FF0000CC06FEF7FEF90E080E00E9418300E94BD
:10500000DF0586E080935B0183CF83E090E00E9420
:10501000E62F0E94360B0E945E0F811102C00E9493
:105020004B2D80919E02811138C00E946F17811113
:1050300004C00E9410150E94F91488E090E00E94BC
:10504000EE2F609337037093380380933903909366
:105050003A038091D30283608093D3026E7F71F410
:105060000E94F91488E090E00E94EE2F60933703CD
:10507000709338038093390390933A030E94660635
:105080000E945F068091370380FF04C060E0869530
:105090000E94981481E080939E025198599A5098EA
:1050A000589A89B1869581704899F5C190E0892B0D
:1050B0008093A7029091400181E098279093A602E7
:1050C000891B80939F0281E491E090933F0380933A
:1050D0003E0328E1A22EB12C30E4532E4EEBC42E19
:1050E00042E0D42E8091570300E112E1853009F4AB
:1050F00007C20E948E2381110E94FF05EAEAF2E0B6
:10510000A4EBB2E010E000E0802EED9081918E15CE
:1051100009F405C28E25912CFF24F394982F9F212A
:1051200009F4F8C10E945E0F882399F099A28AA21F
:10513000EF2081E009F480E08BA30E940B068160E0
:10514000782F9DA38CA349A15AA16BA18DA10E9488
:10515000FE22F801E655FD4F8081F826F08280910D
:10516000D202882309F464C08091D102E091370310
:10517000E695E81BE093CD02823009F0E7C1F0E04C
:10518000E65BFD4FE4910E2F10E09FEEE92E9EE0CE
:10519000F92E8091CE02882361F01092CE020E94F7
:1051A00002109093CC028093CB021092D002109206
:1051B000CF020E940210E091CB02F091CC029C0140
:1051C0002E1B3F0B2F3F3F4798F52091A202222331
:1051D000B1F01092A2022091A0023091A102821B94
:1051E000930B8F3F9F4758F4205D3A483093A102BC
:1051F0002093A0028091D30288608093D302809094
:10520000CF029090D002E00FF11FF093CC02E09318
:10521000CB028BEC92E0F70109958091CF0290913F
:10522000D002892B29F4892819F081E08093A20209
:10523000E091A702EE0FEE0FE093A70289B181FB88
:10524000662460F84899EEC180E08629E82BE09357
:10525000A7029091A602EF70F0E0EA55FE4F808120
:105260002091A502820F84300CF4DFC1E92FF0E019
:10527000ED55FD4F90819F5F908321E0082E000C3B
:10528000990B64E070E00E94372F8093A5022111F2
:105290000E94160A86E0E5ECF2E0DE01119601902C
:1052A0000D928A95E1F7F090C702E090C802109144
:1052B000C9020091CA021092C7021092C80210924D
:1052C000C9021092CA028F2D8E2909F448C080911C
:1052D000C3029091C4020E94F0059C019091BF020C
:1052E000992309F46FC323333105C8F19F3F19F0A7
:1052F0009F5F9093BF02FF2059F00E94CD079FEF60
:105300001F140CF491E0899F802D11248093C70213
:10531000EE2059F00E94CD079FEF1E140CF491E08F
:10532000899F802D11248093C8023091C7023323B6
:10533000B1F02091C802222391F045EB3403C00163
:105340001124992309F47CC19093C70245EB2403EF
:1053500090011124332309F477C13093C802812FBF
:10536000802B09F448C08091C1029091C2020E9432
:10537000F0059C019091BE02992309F41EC32536C5
:105380003105C8F19F3F19F09F5F9093BE02112332
:1053900059F00E94AB079FEF11160CF491E0899F22
:1053A000802D11248093C902002359F00E94AB077D
:1053B0009FEF10160CF491E0899F802D11248093AB
:1053C000CA023091C9023323B1F02091CA022223CC
:1053D00091F045EB3403C0011124992309F438C13D
:1053E0009093C90245EB240390011124332309F45F
:1053F00033C13093CA028091C7029091C802892BB1
:105400009091C902892B9091CA02892B11F00E94B8
:105410000B0786E0FE013196A5ECB2E001900D92FB
:105420008A95E1F70E94810F9091A802891721F0D7
:105430000E94810F8093A80280915703843009F065
:1054400051CE83E08093E9008091E80082FF4ACE4C
:105450008091E80090E085FF0CC00E94700430E26B
:10546000E32EF12C8E010F5F1F4F882309F402C138
:1054700091E08091E8008B778093E800992309F40C
:1054800031CEE981E150E33108F056C1F0E0E95452
:10549000FF4C0C944B2F92E00ACE8091570384303E
:1054A00009F1109242030FB6F894A895A0926000FB
:1054B0000FBE5092600083B7817F846083BF83B743
:1054C000816083BF7894889583B78E7F83BF0FB642
:1054D000F894A89580916000886180936000109294
:1054E00060000FBE80915603882351F00E948E23E6
:1054F000E4EBF2E08191811141C2CE16DF06D1F7D3
:1055000080915703853009F4C8CF0E947A170E9412
:10551000810FEFCD9394FF0C98E09912FFCD0F5FB0
:105520001F4F0A30110509F0EFCD8FEF8EA38FA327
:1055300018A60E940B068160782F9AA789A74EA112
:105540005FA168A58AA50E94FE2209CE863059F483
:10555000F0E0E95BFD4FE4910E2F10E08FEDE82EB7
:105560008EE0F82E16CE893061F4E695F0E0EC5B23
:10557000FD4FE4910E2F10E0B0E3EB2EBEE0FB2ECA
:1055800008CE8F3061F4E695F0E0EF5BFD4FE491DB
:105590000E2F10E0A7E9EA2EADE0FA2EFACD853104
:1055A00059F4F0E0E25CFD4FE4910E2F10E0F0E1E1
:1055B000EF2EFDE0FF2EEDCD08E210E060E8E62ED4
:1055C0006CE0F62E883109F4E4CD833249F4ECE343
:1055D000F2E005911491E6E8EE2EEEE0FE2ED9CD34
:1055E00004EF11E053E4E52E5CE0F52E843209F47B
:1055F000D0CD00ED17E04EE5E42E46E0F42E8532E6
:1056000009F0C7CD8E2F63E00E94092FE92FF0E04B
:10561000E75CFD4FE4910E2F10E076E8E72E72E193
:10562000F72EB7CD82E090E010CE20E08D3F0CF059
:1056300025CEE92FF0E0ED55FD4F908191501CCE25
:1056400081E08093C70282CE81E08093C80287CE3A
:1056500081E08093C902C6CE81E08093CA02CBCE9E
:105660008091F100F80181938F01F1E0EF1AF108C8
:1056700009F4FECE8091E80085FDF2CF8091E8002C
:105680008B778093E8000E947004882399F3F0CE12
:105690001A8289E08B8311C08A81823009F484C127
:1056A000833091F1813009F047C00E94FF050E94CC
:1056B000512F6B837C838D839E838091570384302D
:1056C00009F010CD1091E9001F709091EC00892F26
:1056D000817090FD80E8182B82E08093E900809132
:1056E000E80080FF0DC050E040E060E270E0CE01D5
:1056F00001960E94A1048091E8008E778093E800D3
:105700001F701093E900EECCDE011396E4EBF2E09B
:1057100081918D93CE16DF06D9F7CFCF8A81823063
:1057200059F46B817C818D819E810E94512F86E28C
:1057300090E00E94FA2FC1CF8FEF8983BECF4C81BA
:105740006B818A810E94CA119827892798279E8396
:105750008D83B3CF0D811E811027012710278A81E9
:10576000EB8020E1E29E7001112440EA849FE00C6E
:10577000F11C11248C8190E0880F991FE80EF91E0E
:10578000612FC70187960E94FA2F602FC701889664
:10579000D0CF0E94331191CF8A818138C1F060F45B
:1057A000803809F08ACF20E04B81609139038091E5
:1057B00038030E94911381CF8238E9F0833809F0D1
:1057C0007CCF20E040913A036C818B81F2CF60E086
:1057D0008B810E9498148B81811103C00E94030F5A
:1057E0006CCF8091370381608093370360E08695AA
:1057F0000E94981462CF8B8180933B035ECF8A8195
:10580000813899F030F4803809F057CF80913A030D
:1058100041CF823891F0833809F04FCF809138031F
:105820008B83809139038C8348CF8091370380FF2D
:1058300002C086952FCF80E02DCF80913B032ACFE9
:1058400060913703709138038091390390913A0346
:105850000E947F1332CF80E18A832FCF1A8289EB97
:1058600019CF0A811B81102701271027CE0101962D
:105870007C018C80FC01E80DF11D4F01C801895BA2
:105880009C4F8E149F0409F418CF093B110550F466
:105890000E94E62FF70184830F5F1F4FFFEFEF1A7F
:1058A000FF0AECCFF7011482F7CF0A811B81102782
:1058B00001271027CE0101964C01EC80E00EF12E5D
:1058C000F11CC801895B9C4FE016F10609F4F5CE86
:1058D000093B110520F4F40164810E94FA2FFFEFC7
:1058E0008F1A9F0A0F5F1F4FECCF0E942311E5CE46
:1058F00085E0B2CF0A811B81102701271027CE0136
:1059000001967C018C80FC01E80DF11D4F01C8015E
:1059100087968E149F0409F4D0CE0032F3E01F075F
:1059200050F40E94E62FF70184830F5F1F4FFFEFB3
:10593000EF1AFF0AECCFF7011482F7CF0A811B811F
:10594000102701271027CE0101964C01EC80E00EB4
:10595000F12EF11CC8018796E016F10609F4ADCED0
:105960000032E3E01E0720F4F40164810E94FA2F64
:10597000FFEF8F1A9F0A0F5F1F4FECCF09BD19BDB4
:1059800009B400FEFDCF8091D8008F7D8093D800B0
:105990008091E00082608093E0008091E00081FDD2
:1059A000FCCF0E947A17ACCD86E290E00E94E62FF1
:1059B0001B821C821D828E8380CE2D32314008F0E6
:1059C000E3CC19CD2D32314008F092CCC8CC8EE119
:1059D0004A9B02C08150E1F74A9BFECF08955A9836
:1059E00080E28A95F1F75A9A0895FC013BE03A95D6
:1059F000F1F798E020E080E031E040E14A95F1F7EE
:105A0000880F4A9B02C08160232742E04A95F1F744
:105A1000000040E14A95F1F7915079F790E19A95AD
:105A2000F1F799B132E03A95F1F7000040E14A957B
:105A3000F1F792FB992790F992272081920F90839A
:105A40000895EF92FF920F931F93CF93DF930F92DE
:105A5000CDB7DEB719828C017C01E60EF11C0E1564
:105A60001F0561F481E09981911180E00F90DF9131
:105A7000CF911F910F91FF90EF9008950E94E72C16
:105A8000CE0101960E94F52CF80181938F01E7CF9A
:105A9000529A5A9A089552985A9AEA9AE9E6F0E088
:105AA00080818F7C808308956150770B91E001C0E5
:105AB000990F6A95EAF720E031E0911108C022239E
:105AC00091F05A9A80E28A95F1F75A980895492FF1
:105AD000482339F05A9A232740E24A95F1F79695E0
