:100000000C943B020C9482020C9482020C948202A7
:100010000C94D1230C9482020C9482020C948202E0
:100020000C9482020C9482020C94122C0C94E62CF8
:100030000C948F260C9482020C9482020C948202FF
:100040000C9482020C9482020C9482020C94820220
:100050000C9482020C9402270C9482020C9482026B
:100060000C9482020C9482020C9482020C94820200
:100070000C9482020C9482020C9482020C948202F0
:100080000C9482020C9482020C9482020C948202E0
:100090000C9482020C9482020C9482020C948202D0
:1000A0000C9482020C9482020C94820200000000E4
:1000B00000002900000000000000000029001F00CF
:1000C0002100E3001E002000220000002B001A0087
:1000D0001500E2001400080017000000E000160000
:1000E00009002C00040007000A000000E1001B00CA
:1000F00019002C001D000600050000000000000093
:100100000000E70000000000000000004C00260096
:1001100024004C0027002500230000002A001200C4
:1001200018002A0013000C001C00000028000F001B
:100130000D00280033000E000B000000E500370022
:1001400010002800380036001100000000000000F8
:10015000000000002A2B2800000000000000000022
:100160000000000000000029000000002C1E3420C8
:10017000212224342627252E362D3738271E1F20EE
:100180002122232425263333362E37381F04050633
:100190000708090A0B0C0D0E0F1011121314151677
:1001A0001718191A1B1C1D2F3130232D3504050675
:1001B0000708090A0B0C0D0E0F1011121314151657
:1001C0001718191A1B1C1D2F3130354C0000000068
:1001D000000000000000000000000000000000001F
:1001E000000000000000000000000000000000000F
:1001F0007E0F00D4FFFFFFC700000078000101015F
:1002000001010101010102020202020202020203D3
:1002100003030303030303040404040404040505A3
:100220000505050606060606070707070708080866
:1002300008090909090A0A0A0B0B0B0C0C0C0D0D15
:100240000D0E0E0E0F0F0F101011111112121313AD
:100250001414151516161717181819191A1A1B1B26
:100260001C1D1D1E1E1F2020212222232424252682
:1002700026272829292A2B2C2D2D2E2F30313232BA
:10028000333435363738393A3B3C3D3E3F404142C6
:10029000434445464748494A4C4D4E4F50515354AC
:1002A000555658595A5B5D5E5F6162646566686960
:1002B0006B6C6D6F7072737577787A7B7D7E8082E0
:1002C000838587888A8C8E8F91939596989A9C9E29
:1002D000A0A2A3A5A7A9ABADAFB1B3B5B7BABCBE39
:1002E000C0C2C4C6C9CBCDCFD1D4D6D8DBDDDFE206
:1002F000E4E7E9EBEEF0F3F5F8FAFDFF1003500048
:1003000061006E0067006100650061000000180375
:100310004B006500790074006500630074006F0095
:100320006E006900780000000403090409025B0004
:10033000030100A0320904000001030101000921AA
:10034000110100012240000705810308000A090489
:100350000100020300000009211101000122220016
:10036000070582032000010705030320000109049B
:1003700002000103000000092111010001227B009D
:100380000705840320000A1201000200000008098A
:100390001255460100010200010660FF0961A1013A
:1003A0000962150026FF0095207508810209631572
:1003B0000026FF00952075089102C005010902A1E1
:1003C0000185020901A10005091901290815002567
:1003D0000195087501810205010930093115812552
:1003E0007F95027508810609381581257F9501756D
:1003F000088106050C0A38021581257F95017508CC
:100400008106C0C005010980A101850319012AB731
:1004100000150126B700950175108100C0050C0973
:1004200001A101850419012AA002150126A0029547
:100430000175108100C005010906A101050719E039
:1004400029E71500250195087501810295017508B8
:1004500081010507190029FF150026FF0095067583
:100460000881000508190129059505750191029576
:100470000175039101C011241FBECFEFDAE0DEBF8A
:10048000CDBF04B603FE27C08091170390911803D7
:10049000A0911903B0911A038730904BA740B04B3D
:1004A000D1F41092170310921803109219031092AE
:1004B0001A0314BE84B7877F84BF0FB6F894A8953B
:1004C00080916000886180936000109260000FBE90
:1004D000E0E0F8E3099511E0A0E0B1E0E4EFFEE52B
:1004E00002C005900D92AE3EB107D9F723E0AEEE03
:1004F000B1E001C01D92A731B207E1F70E94B0162A
:100500000C943D2F0C940000F894E82FE295EF70C6
:10051000F0E031A1282F2F7081E090E001C0880F1A
:100520002A95EAF7382B31A392A18095892382A3DB
:1005300078940895F894E82FE295EF70F0E031A1F7
:10054000282F2F7081E090E001C0880F2A95EAF7EC
:10055000982F9095932391A392A1892B82A37894AD
:10056000089508950C94B102EF92FF920F931F9398
:10057000CF93DF93CFE5D1E084E6E82E81E0F82E3B
:100580008E01F80181918F018F3F11F00E949A0234
:10059000E016F106B1F784E90E949A0286E60E940D
:1005A0009A0287E90E949A0286EC0E949A0284E9E4
:1005B0000E949A0286E60E949A0287E90E949A02A5
:1005C00086EC0E949A0289918F3F11F00E949A0254
:1005D000EC16FD06C1F7DF91CF911F910F91FF90AF
:1005E000EF900895DF92EF92FF920F931F93CF93B6
:1005F000DF93EC01D62E062F10E0F801E15AFE4FF2
:10060000E0808FEFE816B9F18E2D0E9484020E94DF
:100610007913E7E5F1E050E040E0F12C61E08191F1
:100620008F3F89F1A82FA295AF70B0E090962C91E2
:1006300030E08F7002C0359527958A95E2F720FD4E
:1006400022C0862F042E01C0880F0A94EAF7982F43
:10065000F92A4F5F5F4F4430510509F78E2D0E94F4
:100660009A0261E0F11001C060E08D2D0E947B13C1
:10067000C00FD11FF882DF91CF911F910F91FF9092
:10068000EF90DF90089590E0E3CFAF92BF92DF92BA
:10069000EF92FF920F931F93CF93DF93D82E092FE2
:1006A000162FE62EF12CC701895A9E4F5C01EC01F2
:1006B00088818F3F09F446C00E9484020E9479130A
:1006C000D4E0ED0EF11C81E090E001C0880FEA94C7
:1006D000EAF7782F8095AFE5B1E0ED2DF02F44E6F5
:1006E00051E000E06D9190816F3F49F1262F2295F6
:1006F0002F7030E0E90128A130E06F7002C035951D
:1007000027956A95E2F720FD1AC0972B908301E0A8
:1007100031964A175B0731F7F50180818F3F11F061
:100720000E949A02602F812FDF91CF911F910F912C
:10073000FF90EF90DF90BF90AF900C947B139823C5
:100740009083E6CFDF91CF911F910F91FF90EF90B3
:10075000DF90BF90AF9008950E94CE138091020168
:100760008091020195E0811190E09093D30285E0A1
:10077000891B8093D2020E94B402E6EDF2E0A0EE63
:10078000B2E011921D9282E0E03EF807D1F785E0D9
:100790000E947D130E9403050C94E313FF920F93B4
:1007A0001F93CF93DF9300D000D00F92CDB7DEB769
:1007B0000E94B413F82E6091D302882309F442C03A
:1007C0008E010F5F1F4F85E0F80111928A95E9F7BE
:1007D000862F90E0B80180529D4F0E94F113E09166
:1007E000D2029E012A5F3F4FF0E0882311F1BF0142
:1007F00060527D4FD801F12CFB014191BF019D91C9
:10080000491731F0AF0141505109FA019083F82E98
:10081000A217B30789F70E9409058F2D0F900F903B
:100820000F900F900F90DF91CF911F910F91FF903C
:100830000895E052FD4FD80111921D92A217B307FF
:10084000D9F7E9CF70E060527D4F8091D20290E0FD
:1008500080529D4F0E947E140E94B202DECFEF9222
:10086000FF920F931F93CF93DF93CDB7DEB72A97F5
:100870000FB6F894DEBF0FBECDBF8E010F5F1F4FC6
:100880008AE0F80111928A95E9F7F12C6F2DC801E1
:100890000E94F202F394F5E0FF12F8CFF12C6F2DD5
:1008A000C8010E944503F39484E0F812F8CF4AE0AF
:1008B00050E0B80186ED92E00E94DF2E7C0121E03D
:1008C000892B09F420E0E114F10441F08AE0F801F9
:1008D000A6EDB2E001900D928A95E1F76091D30206
:1008E00070E060527D4F45E086ED92E00E947E13FD
:1008F00081E090E0EF2811F40E94CE032A960FB613
:10090000F894DEBF0FBECDBFDF91CF911F910F9145
:10091000FF90EF90089581E0089581E008950C9490
:100920008D0408950C9491041F93CF93DF9300D00E
:1009300000D00F92CDB7DEB749835A836B833091D5
:10094000F00189819A8131111DC06623B9F02223FB
:10095000A9F00E94F90A182F682F89819A810E94B4
:10096000A40A69817A81812F0F900F900F900F90C8
:100970000F90DF91CF911F910C943D200E94D10ADE
:10098000182FEFCF0E94F90A69817A81EDCFFC011F
:10099000262F408151816281738184810C9494045B
:1009A00081E00895CF93DF93EC0160E00E94C704DB
:1009B000BE01DF91CF910C949204E1E0F0E0DF0101
:1009C00002C0AA0FBB1F6A95E2F7BD01DF0102C09A
:1009D000AA0FBB1F4A95E2F76A2B01C0EE0F2A95BA
:1009E000EAF7962F9823961302C08E2B0895E09570
:1009F0008E230895242F462F682F80910F020E9486
:100A0000DD040C94610A0E944E130E9452060C945D
:100A100069130C946C1308950E94F9090E940B0548
:100A20002FEF84E39CE0215080409040E1F700C02C
:100A300000000C9426270F931F93CF93DF938C0114
:100A400061E00E94C704EC01B8010E94231E8823C4
:100A500009F441C0B801CE010E948F048823D9F166
:100A6000B801CE010E948A218823A9F1B801CE01E4
:100A70000E94DC21882379F1B801CE010E94FF2277
:100A8000882349F1B801CE010E94741C882319F112
:100A9000F8018281882361F0CA35FDE5DF0721F185
:100AA00070F4C115ECE5DE07A1F0CE3DDC45C9F0E0
:100AB000C801DF91CF911F910F910C948B04CB351E
:100AC0008DE5D807A1F0CC35DD4591F70E94C10E28
:100AD000EFCF0E940C0580E0DF91CF911F910F9125
:100AE00008950E943710F7CF0E94CA0EE1CF0E94EE
:100AF000CD0EDECFDF92EF92FF920F931F93CF9335
:100B0000DF93E82FF0E0E45BFE4FD490282F26958A
:100B10002695269530E0F901E451FE4F0491877047
:100B200010E0082E02C0159507950A94E2F70170AF
:100B30001127F901E452FE4FE490F12C082E02C077
:100B4000F594E7940A94E2F791E0E922FF24F90191
:100B5000E453FE4FC491D0E002C0D595C7958A9565
:100B6000E2F7C170DD270115110519F081EE0E9431
:100B70009E06E114F10419F086EE0E949E068D2D6A
:100B80000E949D07EF2819F086EE0E943007012B86
:100B900019F081EE0E943007CD2B51F08CE2DF91ED
:100BA000CF911F910F91FF90EF90DF900C949D07D4
:100BB000DF91CF911F910F91FF90EF90DF900895FB
:100BC000EF92FF920F931F93CF93DF93EC01162FB9
:100BD0000AE08881882309F454C0813009F04EC0AE
:100BE0008981813099F47E0122E0E20EF11C8A8134
:100BF0000E949D07E7012196812F815050F3EFE974
:100C0000FFE03197F1F700C00000F7CF823041F4E8
:100C10007E0182E0E80EF11C8A810E949E06EACFE6
:100C2000833041F47E01E2E0EE0EF11C8A810E94E5
:100C30003007E0CF843011F02196DDCF2A81229653
:100C400090E080E0AE014F5F5F4F2053330B2A30BE
:100C5000310548F0019778F2EFE9FFE03197F1F7BD
:100C600000C00000F7CF089FB001099F700D11244C
:100C7000C901860F971F2981EA01E4CF0E947A05F6
:100C8000BACFDF91CF911F910F91FF90EF90089510
:100C900060E00C94E00508950C944B0681E0089503
:100CA0000C944E060895CF93C82F0E944C068C2FAB
:100CB000CF910C945006CF93DF93CDB7DEB72B972F
:100CC0000FB6F894DEBF0FBECDBF4F83588769873C
:100CD0007A878B8761110E94F00E1E821D8285E04B
:100CE000FE013796DE01119601900D928A95E1F78B
:100CF0008C819D81892B89F449815A816B817C810A
:100D00008D819E810E94F00D2B960FB6F894DEBF68
:100D10000FBECDBFDF91CF91089589819A8189233C
:100D20008F3F51F3CE0101960E94D0048111E4CF90
:100D3000EBCFFC01808191810C94260BCF93C82FBF
:100D4000882309F48BC08238C1F40E94502581FDAC
:100D500085C089E30E948A0E0E94200F2FEF81EE4A
:100D600094E0215080409040E1F700C0000089E30A
:100D70000E94910ECF910C94200F8338A1F40E9411
:100D8000502580FD6BC083E50E948A0E0E94200FD3
:100D90002FEF81EE94E0215080409040E1F700C0B9
:100DA000000083E5E5CF8438A1F40E94502582FD40
:100DB00055C087E40E948A0E0E94200F2FEF81EE1B
:100DC00094E0215080409040E1F700C0000087E4AB
:100DD000CFCF8CEF8C0F813A90F46C2F8091000173
:100DE000909101010E94BA25882329F08C2F0E943E
:100DF000910E0E94200F8C2F0E948A0EBBCF80E2A2
:100E00008C0F883048F4C77081E001C0880FCA9504
:100E1000EAF70E94D30EAECFEBE5EC0FE33040F4DF
:100E2000F0E0E956FE4F808190E0CF910C947C2554
:100E3000E8E5EC0FE73150F4F0E0EE0FFF1FE75963
:100E4000FE4F80819181CF910C949225C03F30F06C
:100E50008C2F0E943E17CF910C941118CF910895BA
:100E6000882309F452C0823871F40E94502581FF12
:100E70004CC089E30E948A0E0E94200F89E30E94E1
:100E8000910E0C94200F833859F40E94502580FF56
:100E90003CC083E50E948A0E0E94200F83E5EFCFBD
:100EA000843859F40E94502582FF2FC087E40E94A5
:100EB0008A0E0E94200F87E4E2CF9CEF980F913AB0
:100EC000F0F290E2980F983050F4877091E001C0F2
:100ED000990F8A95EAF7892F0E94D90ED2CF9BE508
:100EE000980F933020F490E080E00C947C2598E5F6
:100EF000980F973120F490E080E00C949225803F89
:100F000020F00E9498170C94111808951F93CF9306
:100F1000DF93182FEB010E949E06209731F4812F5A
:100F2000DF91CF911F910C9430078FE99FE00197DB
:100F3000F1F700C000002197F0CF70E060E0893346
:100F400011F460E570E00C948607882321F00E947C
:100F5000D30E0C94200F0895882321F00E94D90EFF
:100F60000C94200F0895BF92CF92DF92EF92FF92E0
:100F70000F931F93CF93DF936C01D62FC72FFC01E4
:100F80001281058102950F700E94A80EE82E882319
:100F9000A1F0E12E112389F08C2F807F803429F07D
:100FA00080E28D0FE12C883040F082E00E94710FCA
:100FB0000E94A80E91E0E82EE926BC2EB2949FE094
:100FC000B922EB2DF0E0E15CF04D0C94D22E0C2F09
:100FD0000F70C07F11F00295007F1123A9F000234C
:100FE00059F080E28D0F883010F0D11109C0802FA8
:100FF0000E94D30E0E94200F8D2F0E949E0614C0C7
:10100000802F0E94E30EF6CF8D2F0E943007002321
:1010100059F080E28D0F883010F0D1112CC0802F54
:101020000E94D90E0E94200F2B2D2850330B243004
:10103000310520F40E9450250E945306EE2009F449
:1010400079C10E94A40E80FD75C1F60112820E9432
:101050009E0E0E94720AC6010E94BB090E949E0E4B
:10106000DF91CF911F910F91FF90EF90DF90CF9084
:10107000BF900C947D0A802F0E94E90ED3CFFC2FE5
:10108000FF70FF2EC07FC03219F0F29480EFF8227B
:10109000DD2369F0D13049F1112391F1002351F1A1
:1010A000F601858180FFA8CF8F70858323C011232F
:1010B00081F0011106C00E94030F8F290E94A5072D
:1010C000B3CF0130C1F70E94030F8F290E94090F8F
:1010D000ABCF011106C00E94160F8F2D0E94AC07E6
:1010E000A3CF013009F4A0CFF6CF112329F00630A9
:1010F00008F09ACF8F2DE2CF053008F095CFEDCFD5
:10110000002359F3D93349F4FFEF27EE33E0F150D0
:1011100020403040E1F700C000008D2F0E943007D2
:1011200083CF8C2F86958695837069F0813009F086
:101130007BCF8D2F9C2F9370111102C090E080E027
:101140000E94922571CF8D2F9C2F9370111102C098
:1011500090E080E00E947C2567CF8D2F112329F03D
:101160000E943E170E9411185FCF0E949817FACF75
:101170008C2F837079F5111157CF4D2F42954695DD
:101180004770440F440F8D2F8F70042E01C0880FBD
:101190000A94EAF72D2F2071D4FF07C02FE030E02A
:1011A00001C0220F4A95EAF72095C695C695C370EF
:1011B000822BC23049F058F4C13019F00E94530A12
:1011C00033CF0E944E0A30CF0E94580A2DCF0E9482
:1011D0004C0A2ACF8695112311F08C2F8170882319
:1011E00009F422CF4D2F429546954770440F440F86
:1011F0008D2F8F70042E01C0880F0A94EAF72D2FCF
:101200002071D4FF07C02FE030E001C0220F4A95C3
:10121000EAF72095C695C695C370822BC23049F077
:1012200058F4C13019F00E94990AFECE0E94940A27
:10123000FBCE0E949E0AF8CE0E94610AF5CECF70C6
:10124000112329F08C2F0E94720A8D2F37CF8D2FFA
:101250000E94AC078C2F0E947D0AE6CED23F89F116
:1012600060F4D03FC9F0D13F29F1112309F442C005
:101270000111C2CE8C2F8F7121C0D33F39F1D43FE1
:10128000A1F7112369F1CF718C2F0E94720A63E0DC
:101290008C2F0E94560FC8CE112341F0053008F064
:1012A000C3CE8C2F8F710E94890ABECE063008F003
:1012B000BBCEF7CF8C2F8F71112369F20E94720A77
:1012C000B3CE8C2F8F711123C9F3C5CF112329F011
:1012D0008C2F8F710E946A0AA7CE0E94670AA4CE43
:1012E00081E00E94710F023008F49ECE82E00E94DD
:1012F000710F9ACE002359F0D93309F00ECF8FEF3A
:1013000097EEE3E081509040E040E1F704CF8C2F6E
:101310008F71A1CF4C2F4F706D2FC6010E943711D6
:101320000E94540B81CE4C2F4F706D2FC6010E942E
:101330003A117ACEDF91CF911F910F91FF90EF90EC
:10134000DF90CF90BF9008950F931F93CF93DF93BB
:10135000EC01688179818A810E94300B8C010E94A6
:10136000A30A0E944B0AB801CE01DF91CF911F91D1
:101370000F910C94B307CF93DF93EC018B819C8189
:10138000892B29F08881998189238F3F59F4DF9136
:10139000CF910895CE010E94A409CE01DF91CF9193
:1013A0000C94D204CE010E941B058111F3CF0E9440
:1013B000A80E882361F38A81882349F382E0DF91B4
:1013C000CF910C94710F90E080E00E947C2590E01A
:1013D00080E00E9492250E94F00E0E94000F0E9461
:1013E000200F0E9438190C9411180E94980E0C942A
:1013F000E3090E94E00E0C94F509E92FE295EF70E5
:10140000E250EE3070F4F0E0E15BF04D0C94D22E3F
:10141000803F19F020F4883E20F481E00895843F55
:10142000E1F380E00895883EC0F3813FD1F7F5CF26
:1014300093FB882780F90895FC01808191810E94A7
:10144000260B0C94FD09CF93DF9300D000D00F92B0
:10145000CDB7DEB70F900F900F900F900F90DF91E8
:10146000CF910895CF93DF9300D000D000D0CDB7B7
:10147000DEB726960FB6F894DEBF0FBECDBFDF9164
:10148000CF91089508950C94420A0E94430A8093D4
:1014900010020C94E30908950C94450A90911002EF
:1014A000892B0C94450A9091100289230C94450ACB
:1014B0009091100289270C94450A0C94420A0C94CE
:1014C0005D0A0E945F0A80930F020C94E30980E09A
:1014D0000C94610A91E001C0990F8A95EAF7892F6F
:1014E0000C94610A21E030E001C0220F8A95EAF7EE
:1014F00080910F02822B0C94610A21E030E001C040
:10150000220F8A95EAF7209580910F0282230C948E
:10151000610A21E030E001C0220F8A95EAF780914C
:101520000F0282270C94610A90910F02892B0C9470
:10153000610A90910F0289230C94610A90910F0225
:1015400089270C94610A0895990F990F990F890FB3
:10155000982F977041E001C0440F9A95EAF786955D
:101560008695869593E0899FF0011124EF50FE4FF8
:1015700030E020E070E05191DF011197CB01022EA5
:1015800002C0969587950A94E2F781708195852728
:10159000842385278C932F5F3F4F2330310559F7E4
:1015A0000895990F990F990F890F982F9770869525
:1015B0008695869523E0829FF0011124EF50FE4F1F
:1015C00050E040E080E0219130E0092E02C03695E5
:1015D00027950A94E2F721703327042E01C0220FC9
:1015E0000A94EAF7822B4F5F5F4F4330510559F75A
:1015F0000895CF92DF92FF920F931F93CF93DF93C3
:101600006C0100910F0280911002082BC7E0D0E01E
:1016100010E0FC2EC8010C2E02C0959587950A9407
:10162000E2F780FD0CC02197A0F7F12C8F2DDF9100
:10163000CF911F910F91FF90DF90CF900895B60149
:101640008C2F0E945612019771F3F0CFCF93DF9346
:10165000EC010E94F90ABE01DF91CF910C94561261
:101660001F93CF93DF93EB019091F001992331F019
:10167000CB01DF91CF911F910C94260B882379F039
:10168000CB010E94F90A182F682FCE010E94A40AEC
:10169000BE01812FDF91CF911F910C945612CB0187
:1016A0000E94D10A182FF4CFEF92FF920F931F934D
:1016B000CF93DF938C01892B81F0F12CEE24E394FE
:1016C000E8012196F8018491843770F4843008F0A1
:1016D0005FC08130B1F08230A1F1DF91CF911F91D5
:1016E0000F91FF90EF900895853709F44CC008F4EE
:1016F0003DC09CE7980F903780F78F770E943007A6
:1017000049C00E5F1F4FFE01849190E2980F983000
:1017100060F48770FE2D01C0FF0F8A95EAF78F2FC6
:101720000E94F30E0E94200F02C00E949E068F2D81
:10173000815030F2EFE9FFE03197F1F700C000008F
:10174000F7CF0E5F1F4FFE01849190E2980F983003
:1017500050F48770FE2D01C0FF0F8A95EAF78F2F96
:101760000E94F90EDFCF0E943007E1CF0E5F1F4FBE
:10177000FE01C491C150D8F28FE99FE00197F1F7C3
:1017800000C00000F7CF0E5F1F4FFE01F490CFCFD7
:101790000E949E068E01CBCF1F93CF93DF93C09103
:1017A000110216E0809112028C1304C0DF91CF91D8
:1017B0001F910895D0E01C9FF0011D9FF00D112492
:1017C000ED5EFD4F408151816281738184819581FD
:1017D0000E94320A2196C770E5CF40914302509192
:1017E00044026091450270914602809147029091B7
:1017F00048020C94320A1F93CF93DF9380914802E2
:10180000807FA9F480914502882389F0809111029C
:10181000C09112026091430270914402A09146026D
:10182000B0914702D62FD72316E0C81304C0DF912A
:10183000CF911F91089590E0109711F0DF3F19F4B8
:1018400001968770F2CF189F9001199F300D1124D7
:10185000F901ED5EFD4F41814713F2CF4081461300
:10186000EFCF42814111ECCF438154814A1B5B0B86
:10187000483C510528F7809148028F708061809321
:101880004802F901E85EFD4F80818F70806180839E
:1018900083E492E00E94BB09DF91CF911F910C94E9
:1018A000CC0BAF92BF92CF92DF92EF92FF920F9349
:1018B0001F93CF93DF93CDB7DEB761970FB6F89440
:1018C000DEBF0FBECDBF8C0185E0F801DE011D96A5
:1018D00001900D928A95E1F7F801E28083E4C82E29
:1018E00082E0D82E60914602709147026115710521
:1018F00009F45AC19091430220914402892F822316
:101900008F3F09F451C140815181A380B480F09090
:101910004502F501E61BF70BFF2009F4F6C08091A4
:101920004802382F307FE83CF10508F0AFC0311194
:1019300079C0FE2C251323C0941321C0E1101FC0D1
:101940008F708061809348020E94ED0BC6010E9457
:10195000BB0980914802F80185838F2D61960FB6EF
:10196000F894DEBF0FBECDBFDF91CF911F910F91D5
:10197000FF90EF90DF90CF90BF90AF900895AB288D
:1019800029F0842F85238F3F09F027C180E0F82FAD
:10199000F170DF2E80FF3CC0809111022091120275
:1019A00036E0821315C04D875E878D859E850E9427
:1019B000260B292F22952F702230F0F0243018F5B5
:1019C0009F70F1F0F8019581907FD1F4D12C1EC069
:1019D00090E0389FF001399FF00D1124ED5EFD4F2E
:1019E0006181651306C06081641303C06281E612E1
:1019F0000FC001968770D5CF9F7011F0882331F307
:101A0000805E883018F3C8010E94BB09FD2CA5CF69
:101A1000EE2009F4A2CF80914802816080934802B1
:101A2000F12C9BCF251306C0941304C0F801EE20BF
:101A300009F487C0C8010E941C0A882319F1EE200E
:101A400009F180914802803270F020914302309178
:101A5000440238872F831986BB86AA868C87CE01DD
:101A600007960E94BB0986E0F801A3E4B2E001906A
:101A70000D928A95E1F70E94FB0B0E94ED0BFF246B
:101A8000F3946BCFC8010E94BB09F9CF311113C089
:101A90007A2DB98AA88A6E2D89890E94230A83E447
:101AA00092E00E94BB0986E0F60111928A95E9F75F
:101AB0000E94ED0BB5CF25130FC094130DC0E1109C
:101AC0000BC0F8018583C8010E94BB0986E0F601BE
:101AD00011928A95E9F741CFC8010E941C0A882318
:101AE00089F2EE2079F280914802803208F4BBCF6F
:101AF00020914302309144023A8329831B82BD82A4
:101B0000AC828E83CE010196ACCFE83CF10508F0A3
:101B10003EC0FE2CEE2009F4B5CF25132AC0941345
:101B200028C08091480280FD1BC0982F907FC1F093
:101B3000F8018583903F31F0982F907F905F8F70F0
:101B4000892B8583C8010E94BB0986E0F801A3E4C4
:101B5000B2E001900D928A95E1F70E94ED0BFDCE67
:101B600086E0F801A3E4B2E001900D928A95E1F7D6
:101B7000F4CEC8010E941C0A811175CF80914802E1
:101B8000816080934802C8010E94BB09E6CE7A2D8D
:101B9000B98AA88A6E2D89890E94230A86E0F601F7
:101BA00011928A95E9F7D9CFEE2009F46BCFC801DD
:101BB0000E941C0AF82E882309F464CF86E0F801FD
:101BC000A3E4B2E001900D928A95E1F783E492E0FC
:101BD0000E9499060E94FB0BC0CF81E08E25D7CED4
:101BE0001F93CF93DF93CDB7DEB72C970FB6F89442
:101BF000DEBF0FBECDBF4F83588769877A878B873B
:101C00009C87CE0107960E94510C882369F08A8533
:101C10009B85892B39F04F815885842F85238F3FF1
:101C200009F071C016E05FC086E0FE013796DE0164
:101C3000119601900D928A95E1F78A859B85892BF3
:101C400089F38F81988589238F3F61F32091120258
:101C500030E0C90101968770992740911102481719
:101C6000190671F40E94F9091092120210921102E1
:101C700086E0E3E4F2E0DF011D928A95E9F7D2CF36
:101C800096E0929FD001939FB00D1124AD5EBD4FA1
:101C9000FE01319601900D929A95E1F78093120220
:101CA0000E94CC0BBFCF819FC00111248D5E9D4F40
:101CB0000E94510C8823E9F0E09111021E9FF0016F
:101CC0001124ED5EFD4F40815181628173818481D9
:101CD00095810E94320A8091110290E001968770EE
:101CE0009927809311028091110290911202891319
:101CF000DACF2C960FB6F894DEBF0FBECDBFDF91C2
:101D0000CF911F91089569857A858B859C850E9466
:101D1000320A88CF682F80910001909101010C94C4
:101D2000F025682F80910001909101010C94F2251B
:101D300080910001909101010C94F4258091490259
:101D400085958595859508958091490287700895B8
:101D500090914902977081E009F480E00895909194
:101D6000D50292FB222720F9281751F080FB92F927
:101D70009093D5028091D4029091D5020C94B40F27
:101D800008958091D50282FB882780F991E0892708
:101D90000C94AF0E81E00C94AF0E80E00C94AF0E6B
:101DA00080915502089590915502892B8093550298
:101DB0000895809590915502982390935502089527
:101DC00010925502089590915402892B80935402E9
:101DD0000895809590915402982390935402089509
:101DE00010925402089590915302892B80935302CC
:101DF00008958095909153029823909353020895EB
:101E000010925302089580914A02089508950C9407
:101E1000060F9091D50292FD08C090914A02981742
:101E200021F080934A020C94070F089580914A0292
:101E3000882329F010924A0280E00C94070F08953D
:101E4000E0910001F0910101809155028083E091C1
:101E50000001F0910101808190915402892B8083CF
:101E6000E0910001F0910101808190915302892B52
:101E7000808390914A02992381F0E0910001F091D2
:101E800001018081892B8083809100019091010163
:101E90000E94A82581110E94160F80910001909147
:101EA00001010C94632508950C94530F9091D50271
:101EB00092FD10C098E0899F90011124622B6093DD
:101EC00049020E94720A80914902859585958595FF
:101ED0000C94540F0C94720A1092490280E00C94F6
:101EE000540F909149028095892380934902282FAD
:101EF000277039F4282F082E000C330B9217130685
:101F000021F49091D50292FF07C08595859585951E
:101F10000E947D0A0C946C0F08956FEF7FEF90E0A4
:101F200080E00C94272F90E080E00E94032F893EF0
:101F30009E4F11F40C94CC1D80E0089582E090E057
:101F40000C94F52E83E090E00C94F52ECF9384E072
:101F500090E00E94F52EC82F82E290E00E94F52EBC
:101F6000982F8C2FCF910895CF93C92F682F84E09D
:101F700090E00E94092F6C2F82E290E0CF910C94A8
:101F8000092FAB01BC018FE090E00C941B2FAB013B
:101F9000BC0183E190E00C941B2F60E070E0CB016A
:101FA0000C94C70F60E070E0CB010E94C10F0C944D
:101FB000CD0F69EE7EEF90E080E00E94272F60E079
:101FC00082E090E00E94092F60E083E090E00E94B0
:101FD000092F1092100260E084E090E00E94092F27
:101FE00060E082E290E00E94092F60E085E090E0EE
:101FF0000E94092F60E086E090E00E94092F6FEFB9
:1020000087E090E00E94092F40E050E0BA0188E0AC
:1020100090E00E941B2F60E08DE090E00E94092F6D
:1020200040E050E0BA0188E190E00E941B2F60E0A0
:1020300087E190E00E94092F40E050E0BA018CE176
:1020400090E00E941B2F70E060E080E290E00E9430
:10205000272F40E050E0BA0188E190E00E941B2F5A
:1020600080E00E94E51D0E940B1E0C94D20F0C9480
:10207000D90F682F8EE090E00C94092F0E94CB2698
:102080006093690270936A0280936B0290936C0272
:102090006093650270936602809367029093680272
:1020A00008950E94CB266093690270936A02809320
:1020B0006B0290936C026093610270936202809352
:1020C000630290936402089585B7806885BF85B7E1
:1020D000806885BF0895089508950C946B10089545
:1020E0000C946F100E94641084E393E10E943727E0
:1020F0000E946C100C946D100C94B4130895089504
:102100000E947E100C947F100E94B6260E94FB2530
:102110000E941A1E0E94AC030E9406210E94F41B1A
:102120000E941D1D0C947010AF92BF92CF92DF924F
:10213000EF92FF920F931F93CF93DF93CDB7DEB74C
:102140002A970FB6F894DEBF0FBECDBF0E942F04B2
:1021500081110E943E1087E5A82E82E0B82E10E083
:1021600000E0C02E802F0E946E13E82EF501F19042
:102170005F01F81609F453C080916D0281FD0E9441
:1021800074138F2D8E25D12CFF24F394982F9F212B
:1021900009F440C00E947C10882399F0DE82CF822F
:1021A000EF2081E009F480E088870E94BF268160EB
:1021B000782F9A8789874E815F8168858A850E94FA
:1021C0005B06F801E95AFD4F8081F826F0820E94F3
:1021D000361D81110E9451100E942C180E9450251A
:1021E00090915602891791F10E94502580935602D2
:1021F0002A960FB6F894DEBF0FBECDBFDF91CF9108
:102200001F910F91FF90EF90DF90CF90BF90AF9014
:102210000C945306D394FF0CF8E0DF12B7CF0F5F96
:102220001F4F0A30110509F09CCF8FEF89838A83F5
:102230001B820E94BF268160782F9D838C834981F9
:102240005A816B818D810E945B06C1CF2A960FB6A1
:10225000F894DEBF0FBECDBFDF91CF911F910F91DC
:10226000FF90EF90DF90CF90BF90AF90089590E0F7
:1022700080E008950895FC01EE0FFF1FE450FE4F2B
:10228000859194910895CF93DF930E945A12EC01A7
:10229000811520E5920708F042C0811530E49307CC
:1022A00008F0BDC0883E910528F5803E910508F0F4
:1022B0009DC0883A910588F4853A910508F08FC051
:1022C0008130910509F492C0009709F48FC00497FA
:1022D00008F08CC0D0E0C0E089C08F3B910508F4C5
:1022E00089C0805C9109C03CD105A0F30E943B11DC
:1022F000EC017CC08115904250F4C11581E0D807F3
:1023000008F074C0C03FD10528F3D0656FC0C11577
:1023100090E3D90708F079C0CE019F70E7CF81150F
:1023200025E5920758F5811534E5930708F0A6C016
:10233000811542E5940750F4C11581E5D80708F4EA
:1023400071C0DC2FCC27C16FD06A50C0982F9695F2
:1023500096959E0123703327C115D34508F07FC0A1
:10236000C1E0D0E002C0CC0FDD1F2A95E2F720E2E9
:10237000929FC0011124C82BD92B6FC0C11589E5CC
:10238000D807A8F4C11598E5D90708F07CC0C11595
:1023900026E5D20708F09ECF8C2F0E94F112C82F9D
:1023A000D0E0DC2FCC27CC27DF71D0621FC0C11555
:1023B0003AE5D30708F46CC0CE01905681159042DF
:1023C00008F088CF8D2F8F710E94F11290E0982F26
:1023D000882788279F719C012C2BE901E6CFC55ADD
:1023E000D0E0C853DE4FC881D0E0D064CE01DF9189
:1023F000CF910895C85AD0E0CC0FDD1FC656DE4FEE
:102400000990D881C02DD464F1CFCE019927D3FF94
:1024100003C0EC01D86CEACFEC01D06CE7CFDF70E1
:10242000D06AE4CFCE01E4E096958795EA95E1F78E
:1024300083702C2F26952695237090E2299F90017A
:102440001124382B8C2F8370C1E0D0E002C0CC0F58
:10245000DD1F8A95E2F7C22BD32BDC68C7CFC1E022
:10246000D0E002C0CC0FDD1F2A95E2F730E2939F47
:10247000C0011124C82BD92BDA68B8CFD82FCC27AC
:10248000C46FD06AB3CFDC2FCC27C06FD06AAECF79
:102490008C2F8F700E94F11234E0D695C7953A9533
:1024A000E1F7CF709C2FEC01D069A0CF0E943D20B6
:1024B0000C94431182389105B1F1B0F48133910548
:1024C00009F475C048F48932910509F469C08A326B
:1024D000910509F473C008958533910509F459C035
:1024E0008933910501F10895833E9105A9F138F4EE
:1024F000803E9105F9F0823E910549F10895863EAE
:102500009105A9F1873E9105C9F1843E910519F520
:102510002091D50221FF1FC08091D40284FD14C0F8
:1025200087EE90E008952091D4022370A1F080EE10
:1025300090E008952091D40220FD47C03091D5024B
:1025400030FF09C024FF44C090E080E004C0209127
:10255000D40222FDF7CF08952091D40222FD3BC082
:102560003091D50230FDE3CF24FFF5CFEDCF2091A0
:10257000D40223FFF0CF24FDE7CFD2CF2091D402A5
:1025800023FD2CC03091D50231FFEECF84EE90E0D8
:1025900008952091D40225FFDECF89E290E00895CE
:1025A0002091D40225FFD7CF85E390E008952091B4
:1025B000D40226FFD0CF8AE290E008952091D40281
:1025C00026FFC9CF81E390E0089589E390E0089564
:1025D00083EE90E0089582EE90E0089586EE90E01C
:1025E00008959091D40292FF06C0282F28712830B8
:1025F000F9F4877F846093FF06C0282F2871283163
:10260000F1F4877E84612091D50220FF06C0382F27
:1026100038713830D9F4877F816021FF06C0282FB8
:1026200028712831D1F4877E816194FD877E0895D9
:10263000282F24712430F9F68B7F8860DCCF282F77
:102640002471243101F78B7E8861DDCF382F317101
:10265000313019F78E7F8860E0CF282F217121312A
:1026600021F78E7E8861E1CF80E008950C948D0F74
:102670000E942F048FE39CE90197F1F700C000004E
:102680000E942F0480E00E946E1380FF04C00E940D
:1026900036130C94262708950C9438130E94930F38
:1026A000811102C00E9437100E949E0F80936D021C
:1026B0000E94A60F9093D5028093D4020E944C13DF
:1026C0000E94A20F0E944C0A80910F020C945F0A94
:1026D00008950C94681308950C946B13E82FF0E0A0
:1026E000E052FD4F80810895089580EA8A95F1F7C0
:1026F000089500C008950C9475130895FF920F93E8
:102700001F93CF93DF93F82E092F162FD72FC42FA7
:10271000222349F081E0809370020E94BF269093AB
:102720006F0280936E02809170028823A1F08091E5
:102730006E0290916F020E94D726059760F0EF2DF0
:10274000F02FA12FBD2FCE0FDF2FD11DEC17FD07CE
:1027500041F410927002DF91CF911F910F91FF9081
:10276000089581918D93F2CF80917302811107C0FA
:102770000E949D2E882351F081E08093730281E0B6
:1027800090917302913009F080E0089582E0809387
:1027900073020E94982EF3CF0C94B4130E94CC13B2
:1027A000809302018091020163E0882349F080E078
:1027B0000E94DE190E94B413882321F00C94271480
:1027C00083E0F6CF08950E94B413811102C00C94E7
:1027D0002914089581E0909174029A3008F080E005
:1027E00008950F931F93CF93DF93EC018B0180919A
:1027F00074028A30B8F4B801CE010E947C14C82F4C
:10280000811122C0809174028F3FB9F40E94BF26CB
:1028100090937202809371028C2FDF91CF911F9160
:102820000F91089580917102909172020E94D726B3
:10283000843F914000F7C0E0EFCF8F5F8093740238
:102840008A3020F7C1E0E8CF10927402E5CF0C94F3
:102850008A230C948D23EF92FF920F931F93CF93B3
:10286000DF937901C82F880FDD0B41155105A9F0C1
:102870008AE08C9FF0018D9FF00D1124ED5FFE4FDB
:10288000838194818B589D4F228130E042175307FA
:1028900008F49A01A9010E94EC2ECE010E9497240F
:1028A000892B11F501151105E9F08AE08C9FF001E3
:1028B0008D9FF00D1124ED5FFE4F458150E0041710
:1028C000150708F4A8018AE08C9FF0018D9FF00D98
:1028D0001124ED5FFE4F668177816B587D4FC701F4
:1028E0000E94EC2E81E001C080E0DF91CF911F912A
:1028F0000F91FF90EF9008950C941F160C944B16B7
:102900000F931F93CF93DF9300D000D0CDB7DEB7E6
:1029100060919A0270919B0280919C0290919D021D
:102920000E94E62611E0643671058105910518F1D3
:102930000E9421266E5F7F4F8F4F9F4F69837A835E
:102940008B839C8310E000E030E020E044E050E026
:10295000BE016F5F7F4F84E00E942B14182F8823E5
:1029600051F00E94CB2660939A0270939B02809351
:102970009C0290939D02812F0F900F900F900F90CB
:10298000DF91CF911F910F9108957F928F929F9227
:10299000AF92BF92CF92DF92EF92FF920F931F936D
:1029A000CF93DF930F92CDB7DEB7762E4A01590150
:1029B000680101E010E09E012F5F3F4F50E040E0D2
:1029C00070E060E00E942B14182F882309F43EC0A9
:1029D000F40160817181828193810E94E6266436D0
:1029E00071058105910558F18701950150E040E09E
:1029F00070E060E0872D0E942B14B82EB701C6014D
:102A00000E94072111E09981981310E01B2139F0F1
:102A10000E94CB26F4016083718382839383812F8C
:102A20000F90DF91CF911F910F91FF90EF90DF906A
:102A3000CF90BF90AF909F908F907F900895B701F7
:102A4000C6010E94072199818913CECFA701B60143
:102A5000C5010E94EC2EE3CFEF92FF920F931F93DC
:102A6000CF93DF930F92CDB7DEB70091CB011091DA
:102A7000CC01095F1F4FEE24E394F12C9E012F5FE0
:102A80003F4F46E952E063E082E00E94C514182FF0
:102A9000882321F0CE0101960E948D1D812F0F9079
:102AA000DF91CF911F910F91FF90EF900895CF92FA
:102AB000DF92EF92FF920F931F93CF93DF9300D09B
:102AC00000D00F92CDB7DEB76B010091CB01109112
:102AD000CC010F5F1F4F85E0E82EF12C9E012F5F88
:102AE0003F4F42E952E061E080E00E94C514882334
:102AF00049F095E0FE013196ADE8B2E001900D920B
:102B00009A95E1F795E0EDE8F2E0D60101900D929B
:102B10009A95E1F70F900F900F900F900F90DF9123
:102B2000CF911F910F91FF90EF90DF90CF9008957C
:102B30000F931F93CF93DF93CDB7DEB728970FB6D0
:102B4000F894DEBF0FBECDBFCE0101960E94351CAA
:102B5000188560919E0270919F028091A0029091D1
:102B6000A1020E94E626643671058105910510F4E4
:102B70001123C1F010E000E030E020E048E050E038
:102B8000BE016F5F7F4F85E00E942B14882369F0A0
:102B90000E94CB2660939E0270939F028093A002B6
:102BA0009093A1020E94321C81E028960FB6F894FF
:102BB000DEBF0FBECDBFDF91CF911F910F91089562
:102BC000AF92BF92CF92DF92EF92FF920F931F933B
:102BD000CF93DF937C015B016A010E94EA1301E05D
:102BE00010E0882311F00AE010E0C1E0D0E0F89492
:102BF000B501C701F60109957894811104C02196A9
:102C00000C171D075CF4DF91CF911F910F91FF907E
:102C1000EF90DF90CF90BF90AF900895CC9F900140
:102C2000CD9F300D300D112490E080E045E34A95B2
:102C3000F1F70000019682179307C1F7D8CF0F93E1
:102C40001F93CF93DF93EC018B0147E555E10E9481
:102C5000E0158823D1F04CE255E1B801CE010E9485
:102C6000E015882391F040E854E1B801CE010E94BC
:102C7000E015882351F048E955E1B801CE01DF9114
:102C8000CF911F910F910C94E01580E0DF91CF91CF
:102C90001F910F910895CF92DF92EF92FF920F93C1
:102CA0001F93CF93DF930F92CDB7DEB7F8940091C7
:102CB000CB011091CC01C801019625E0FB01DC019C
:102CC00001900D922A95E1F765E070E00E940721DE
:102CD000F80180837894F894CE0101960E94841DB7
:102CE0008981F801878361E070E0CE0101960E943E
:102CF0000721F80186837894F89460857185828530
:102D00009385C0908902D0908A02E0908B02F09067
:102D10008C026C157D058E059F0551F0609389022C
:102D200070938A0280938B0290938C020E940426F7
:102D30007894F894F8018389882339F060E0C80119
:102D40000C960E94481CF801138A78940F90DF912A
:102D5000CF911F910F91FF90EF90DF90CF9008954A
:102D60000E943C260E94CA280E94E3280E94F5285F
:102D70000E948010FBCF8091A80280FF12C060915A
:102D8000440185E0689FB00111247595679575959C
:102D9000679560387105A8F561157105A1F1862F59
:102DA000089581FF09C06091440185E0689FB001EA
:102DB000112475956795EDCF6091440182FD0AC09D
:102DC0008091A7028823D1F0909143016091440142
:102DD000891728F085E0689FB0011124DACF869F1B
:102DE000B001112485E0869F9001879F300D11244A
:102DF000692F70E0C9010E94BE2ECBCF65E070E064
:102E0000CECF8FE7089581E008958091A80280FFDA
:102E10000CC06091400170E0759567957595679558
:102E20006115710549F1862F089581FF06C06091F3
:102E3000400170E075956795F3CF6091400182FD88
:102E40000BC09091A6029923A1F060913F0180915F
:102E50004001961738F0682F70E06038710500F374
:102E60008FE70895899FC001112470E00E94BE2E53
:102E7000F4CF61E070E0D7CF81E00895803F31F476
:102E80000E94BB1681958093AC020895813F19F48E
:102E90000E94BB16F8CF823F31F40E94BB16819589
:102EA0008093AB020895833F19F40E94BB16F8CFBC
:102EB000893F29F40E9405178093AD0208958A3F47
:102EC00021F40E9405178195F7CF8B3F31F40E94C2
:102ED000051781958093AE0208958C3F19F40E94E6
:102EE0000517F8CF9CE0980F953070F4845F990B2C
:102EF00021E030E001C0220F8A95EAF78091AA0212
:102F0000822B8093AA0208958D3F31F48091A8020C
:102F100081608093A80208958E3F21F48091A802D9
:102F20008260F7CF8F3FB9F78091A8028460F1CF1C
:102F30004091AB02803F59F48091AC0287FF0DC0F5
:102F40001092AC0241110BC01092A70208C0813F41
:102F500081F48091AC0218169CF3442381F0809197
:102F6000AD029091AE02892B09F05AC01092A602D0
:102F70000895823F49F447FFF0CF1092AB02809151
:102F8000AC028111ECCFE0CF833F19F41416ACF3FF
:102F9000E4CF9091AD02893F29F41916F4F610920E
:102FA000AD02DBCF8A3F19F497FFD7CFF8CF9091CE
:102FB000AE028B3F29F497FFD0CF1092AE02CDCF57
:102FC0008C3F19F41916CCF3C8CF9CE0980F9530BC
:102FD00090F4845F990B21E030E0B90102C0660FE4
:102FE000771F8A95E2F7CB0180959091AA028923F9
:102FF0008093AA02B2CF8D3F31F48091A8028E7FD8
:103000008093A802AACF8E3F21F48091A8028D7FE1
:10301000F7CF8F3F09F0A1CF8091A8028B7FF0CF2F
:1030200008950E94BF269C019091AB028091AC0252
:10303000982B21F03093A5022093A4029091AD0229
:103040008091AE02982B21F03093A3022093A2022C
:1030500089EA92E00C946E25EF92FF920F931F93F2
:10306000CF93DF9300D000D000D0CDB7DEB786E09D
:10307000E9EAF2E0DE01119601900D928A95E1F7FE
:10308000E090AB02F090AC020091AD021091AE0264
:103090001092AB021092AC021092AD021092AE02EE
:1030A0008E2D8F2991F08091A4029091A5020E940B
:1030B000D726AC019091A702992309F43FC08091D3
:1030C00045018417150608F447C0802F812B91F025
:1030D0008091A2029091A3020E94D726AC01909108
:1030E000A602992309F477C080914101841715063F
:1030F00008F47FC08091AB029091AC02892B909133
:10310000AD02892B9091AE02892B11F00E9411180B
:1031100086E0FE013196A9EAB2E001900D928A950F
:10312000E1F726960FB6F894DEBF0FBECDBFDF9154
:10313000CF911F910F91FF90EF900895209146013C
:103140008AE0289F900111242417350708F0BDCF8D
:103150009F5F9093A70202C09F3FD1F7EE2059F0E6
:103160000E94BB169FEF1E140CF491E0899F802DE6
:1031700011248093AB02FF2059F00E94BB169FEFF1
:103180001F140CF491E0899F802D11248093AC02D0
:103190003091AB02332309F498CF2091AC02222363
:1031A00009F493CF45EB3403C0011124992359F05E
:1031B0009093AB0245EB240390011124332339F0A3
:1031C0003093AC0282CF81E08093AB02F3CF81E0F9
:1031D0008093AC027ACF209142018AE0289F90012F
:1031E00011242417350708F085CF9F5F9093A6021E
:1031F00002C09F3FD1F7002359F00E9405179FEFAF
:1032000010160CF491E0899F802D11248093AD025B
:10321000112359F00E9405179FEF11160CF491E04D
:10322000899F802D11248093AE023091AD0233230B
:1032300009F460CF2091AE02222309F45BCF45EB65
:103240003403C0011124992359F09093AD0245EB4A
:10325000240390011124332339F03093AE024ACF76
:1032600081E08093AD02F3CF81E08093AE0242CF44
:1032700086E0E9EAF2E0DF011D928A95E9F7109213
:10328000A7021092A6021092A8020895EF92FF9250
:103290000F931F93CF93DF93EB01E82FD11110C051
:1032A000442321F0F0E0E450FE4FE4916E2F7E2F96
:1032B0008E2FDF91CF911F910F91FF90EF90089586
:1032C0000D2F10E0282F30E0442329F024503E4FEA
:1032D000F901249130E0F6E0CF9FC0011124EFEF17
:1032E000F0E0BF010E94AA2EAB018C2F90E0880F66
:1032F000991FA5E5A49FB001A59F700D1124861B01
:10330000970B982F990F980FBF01601B710B629F4D
:10331000D001639FB00D729FB00D11248B2F9D9F24
:10332000B0011124672F7727EF01C61BD70BBE0111
:10333000629FE001639FD00D729FD00D11247F0129
:10334000E91AF108E09EB001E19E700DF09E700D4B
:103350001124672F7727E61BF70BE29F8001E39F7D
:10336000100DF29F100D1124E12F722F42305105E4
:1033700099F048F44115510569F04130510581F04B
:10338000EB2F8D2F07C04430510569F080F0463097
:103390005105B1F76E2F8DCFE22F7B2F812FFACF02
:1033A000E22F7D2FF7CFEB2F822F712FF3CF7B2FC3
:1033B000822FED2FEFCF41E00C944619E7E4F1E0C6
:1033C0008083618308950C94DB19CF93DF93762F6C
:1033D000E901682F842F0E94E319798368838A8327
:1033E000DF91CF9108958091EB02982F9E7F39F461
:1033F0008091EB02817082608093EB0208958430AB
:10340000B8F7089588E090E00C94FD2ECF92DF92FB
:10341000EF92FF926B017C010E94F319B701A601A4
:1034200088E090E0FF90EF90DF90CF900C941B2FFE
:103430006091EB027091EC028091ED029091EE02AE
:103440000C94061AEBEEF2E083E0808311828FEF9A
:10345000828383831482A0EBB2E012968C91129740
:10346000836012968C9360817181828193810C9428
:10347000061A8091EB0280FF02C08695089580E0D5
:1034800008959091EF02933018F49F5F9093EF02AC
:10349000882351F06091EB027091EC028091ED0273
:1034A0009091EE020C94061A089581E00C94411A52
:1034B0009091EF02992319F091509093EF02882395
:1034C00051F06091EB027091EC028091ED029091CD
:1034D000EE020C94061A089581E00C94581A80911B
:1034E000EF0208958093EF02662351F06091EB02A2
:1034F0007091EC028091ED029091EE020C94061A0C
:10350000089560E00C94721A8091EC020895809105
:10351000ED0208958091EE02089570E00C94ED1C88
:10352000609148018091EB0280FF0AC080914701C1
:1035300023E0829FC001112480519D4F0C948D1A6D
:103540008091490190914A0123E0829FF00111246A
:10355000E051FD4F891750F71182108212828F5F60
:103560003396F8CFEBEEF2E080818E7F808360812E
:103570007181828193810E94061AE0EBF2E08281E0
:10358000816082832FEF80E792E02150804090405D
:10359000E1F700C000000C94901AEBEEF2E080819D
:1035A0008E7F8083E0EBF2E08281816082832FEF67
:1035B00080E792E0215080409040E1F700C0000099
:1035C0000C94901A9091EB0290FF14C090914901D5
:1035D00020914A0133E0939FF0011124E051FD4F07
:1035E000921710F00C94901A8183608342839F5F3E
:1035F0003396F6CF0895EF92FF920F931F93CF93D8
:10360000DF9300D00F92CDB7DEB7F82E062F142F20
:10361000E22E8091EB0280FF39C0E82FE695F0E0C2
:10362000E353FE4F90819093B0028E7F823059F425
:103630009E012F5F3F4F8F2D0E94E5194B816981BD
:103640008A810E94E21A8091EC028F1108C0809159
:10365000ED02801304C08091EE02811729F0809161
:10366000B20282608093B202F092EC020093ED020B
:103670001093EE02EE2051F06091EB027091EC029B
:103680008091ED029091EE020E94061A0F900F9029
:103690000F90DF91CF911F910F91FF90EF900895C0
:1036A000EBEEF2E09181282F4381628188E0890F5F
:1036B0000C94FB1A81E00C94501BEBEEF2E091812C
:1036C000282F4381628188EF890F0C94FB1A81E0D7
:1036D0000C945D1BEBEEF2E0628121E1620F08F4D5
:1036E0006FEF282F438181810C94FB1A81E00C94A9
:1036F0006A1BEBEEF2E0628121E1621B08F460E0FC
:10370000282F438181810C94FB1A81E00C94791B52
:10371000EBEEF2E0438121E1420F08F44FEF282F56
:10372000628181810C94FB1A81E00C94881BEBEE82
:10373000F2E0438121E1421B08F440E0282F62813E
:1037400081810C94FB1A81E00C94971B20E00C946F
:10375000FB1A8091EB0280FF1DC081708260809314
:10376000EB028091B20281608093B202662351F035
:103770006091EB027091EC028091ED029091EE026B
:103780000E94061A4091EE026091ED028091EC02D7
:103790000C94A61B0895682F81E00C94A91B81E06E
:1037A0000C94CB1B682F9091EB0296958FEF890FAD
:1037B00009F481E00C94A91B81E00C94D21B61E018
:1037C0000C94A91BEBEEF2E08081816080838695EA
:1037D0000C94DF1B8091EB0280FD0C94B21A0C94C8
:1037E000E21B60E00C94A91B8091AF02811131C0F3
:1037F0000E94930F811104C00E9437100E94221A68
:103800000E94021A6093EB027093EC028093ED0227
:103810009093EE028091B20283608093B2026E7F39
:1038200061F40E94221A0E94021A6093EB027093C4
:10383000EC028093ED029093EE020E94F3198091C6
:10384000EB0280FF03C086950E94F11B81E080930C
:10385000AF020895EBEEF2E080818160808386956F
:103860000C94F11B1092B202089525E0EBEEF2E009
:10387000DC0101900D922A95E1F72091B002309180
:10388000B1024091B202FC0125833683478308953B
:103890001F93CF93DF93EC01162F8F8180FF0CC015
:1038A000888180FF15C08091EB0281608093EB02DC
:1038B000888186950E94A91B8F8181FF0CC0212FD2
:1038C0004B816A818981DF91CF911F910C94FB1A02
:1038D0000E94CD1AF1CFDF91CF911F910895FA0187
:1038E000811101C0FB0109941F93CF93DF93EC0179
:1038F000FB01128111114FC00E94D00E8272C93C8F
:10390000FCE5DF0709F460C030F5C53CECE5DE07F7
:1039100009F455C060F4C33C9CE5D90709F443C0E1
:1039200008F048C0C23CDC45D9F111E034C045E89C
:103930005BE166E77BE1C73C9CE5D907C1F14AE55D
:103940005BE167E67BE1C83CDC4588F146E75BE18B
:1039500065E87BE12CC0CD3CFCE5DF07D1F1A0F4AC
:103960004CE65AE165E57AE1CB3CECE5DE07F9F09F
:1039700044E95BE163EA7BE1CC3CDC45C0F045E532
:103980005AE16CE67AE113C0C63D8CE5D80718F021
:10399000CD35DD4551F6812FDF91CF911F910895EF
:1039A0000E94EA1BF8CF4CED5BE16FEC7BE10E94DB
:1039B0006F1CF1CF4FEC5BE16CED7BE1F8CF47E69C
:1039C0005BE16AE57BE1F3CF43EA5BE164E97BE13C
:1039D000EECF81E00E94DF1BDECF529A4BB14B7FCE
:1039E0005BB15460EFB7F8949B01220F331F260F91
:1039F000371F280F391F2817390741F4EFBF8FE50C
:103A000094E00197F1F700C000000895DC016D918A
:103A1000CD0178E05BB9000000C067FF4BB9660FCD
:103A2000000000C000C000C04BB900C07A9591F7FB
:103A3000E2CF81E008950C94191D5198599A50983D
:103A4000589A89B18695817048990EC090E0892B6B
:103A50008093B8029091020181E098279093B4027C
:103A6000891B8093B302089592E0F1CFCF93E09148
:103A7000B802EE0FEE0FE093B80229B121FB8827C0
:103A800080F948993EC020E0822BE82BE093B802F1
:103A9000C091B402EF70F0E0E153FE4F808190914D
:103AA000B702890F8093B70220E0843064F0EC2FD6
:103AB000F0E0EB54FD4F80818F5F808360E08C2FBE
:103AC0000E941B1D21E08091B7028D3F64F4EC2F12
:103AD000F0E0EB54FD4F80818150808361E08C2FBA
:103AE0000E941B1D21E08091B702082E000C990B4B
:103AF00064E070E00E94BE2E8093B702822FCF91C7
:103B0000089522E030E0C0CFE091B402F0E0EB5441
:103B1000FD4F2081FC0120830895FF920F931F9396
:103B2000CF93DF93D091B3020D2F10E00B541D4FB4
:103B3000FC01C081F8018081C81BFC2E80E01F14AD
:103B40007CF09C2FC7FD90E0C91BC11114C08823D5
:103B5000E9F0DF91CF911F910F91FF900C945110DC
:103B6000FA94F80180818F5F808360E08D2F0E943E
:103B70001B1D81E0E4CFCF5FF801808181508083FD
:103B800061E08D2F0E941B1D81E0DFCFDF91CF917F
:103B90001F910F91FF90089583E290E00E94F52E0F
:103BA000813289F484E290E00E94F52E803159F44C
:103BB00085E290E00E94F52E91E0823009F090E0DD
:103BC000892F8170089580E0FCCFCF93C82F6FEFCD
:103BD000811161E283E290E00E94092F6FEFC11131
:103BE00060E184E290E00E94092F6FEFC11162E072
:103BF00085E290E0CF910C94092F089586E290E041
:103C00000E94F52E682F70E090E080E0089586E233
:103C100090E00C94092F80E00E94E51D60E070E0C8
:103C2000CB010E94071E0E94B51F0E949F2081E0C9
:103C30000C94E51D0E94FD1D0E94CC1D811102C047
:103C40000C940B1E0895CF93FB01C281CC2309F184
:103C50009C0122513F452031310520F582510E94BF
:103C6000AF20C0E08C2FCF91089581E00E94720AAE
:103C700043E062E081E00E94FA04F3CF81E00E9419
:103C80007D0A43E062E081E00E94FA04EBCF82E02B
:103C9000F6CF8031FFE59F0789F381319F45B9F366
:103CA000C1E0E0CF8031EFE59E07F9F281319F4519
:103CB000C9F682E0DBCF2FEFFC0120830895CF937C
:103CC000DF93EC0188818138A9F028F4803871F005
:103CD000DF91CF910895823881F08338C9F70E942F
:103CE000841A89830E94871A8A83F2CF0E948A1AD3
:103CF0008983EECF0E94391AFBCF0E946F1AF8CF4A
:103D0000CF93DF93EC0188818138E1F028F480388B
:103D100069F0DF91CF910895823811F18338C9F7A6
:103D20000E948A1A482F6A81898108C0D9810E941D
:103D3000871AC82F0E94841A4D2F6C2FDF91CF91C4
:103D40000C94A61B89810E94F11B8981811104C0FA
:103D5000DF91CF910C94CD1ADF91CF910C942A1C56
:103D60008981DF91CF910C94811AEF92FF920F938A
:103D70001F93CF93DF93EC01062FDC01ED91CD0172
:103D8000E150E33108F0ADC0F0E0E35AF04D0C949F
:103D9000D22E198289E08A83602FCE01DF91CF91E4
:103DA0001F910F91FF90EF900C94BF278981823073
:103DB00069F0833071F08130D9F40E94CB260E94E3
:103DC000D82E6A837B838C839D83E6CF0E94FE1D61
:103DD000F6CF7E01B2E0EB0EF11C10E0812F0E94C5
:103DE0006E13F70181937F011F5F1A30B9F7D4CFAB
:103DF000602FCE010E945B1ECFCF89818230C1F738
:103E00006A817B818C819D810E94D82E0E94071E31
:103E1000C3CF4B816A8189810E94871F9827892798
:103E200098279D838C83B8CF2C813D81322723270F
:103E300032274B816A8189810E94A01FADCF0E94E9
:103E4000B51FAACF0E94801EA7CF0E945F1EA4CFDD
:103E50000E94181AA1CF0E944A2089839DCF0E94F8
:103E60004C209827892798279A83898395CF6B813F
:103E700070E089819A81AE014C5F5F4F9827892756
:103E800098270E944F2088CF6B8170E089819A81AA
:103E9000AE014C5F5F4F9827892798270E947520B5
:103EA0007BCF0E949F2078CF0E94741FD6CF6B815A
:103EB00070E089819A81AE014C5F5F4F9827892716
:103EC00098270E94ED1F68CF6B8170E089819A81ED
:103ED000AE014C5F5F4F9827892798270E941320D7
:103EE0005BCF8FEF888358CF85E0089590E1699F7D
:103EF000B001112450E0440F551F640F751F90EA64
:103F0000899F600D711D1124CB01879608950F9331
:103F10001F93CF93DF930E94761F8C010E94F52E92
:103F2000C82FD0E0DC2FCC27C80101960E94F52EC7
:103F30009E01282BC901DF91CF911F910F91089508
:103F40000F931F93CF93DF93122F032F0E94761F9F
:103F5000EC01602F0E94092F612FCE010196DF91A5
:103F6000CF911F910F910C94092FAF92BF92CF92D6
:103F7000DF92EF92FF921F93CF93DF938CEAC82ECC
:103F800080E0D82ED0E07601C0E014C0F501259184
:103F90003491412F6C2F8D2F0E94A01F82E0A80E1C
:103FA000B11C1F5F183091F780E1E80EF11CCF5F64
:103FB000CA3019F0570110E0E9CFDF5F80EAC80E80
:103FC000D11CD53001F7DF91CF911F91FF90EF9079
:103FD000DF90CF90BF90AF900895EF92FF920F9334
:103FE0001F93CF93DF93EC018A017C01E60EF71E4D
:103FF000CE018796CE15DF0539F4DF91CF911F9161
:104000000F91FF90EF900895C03223E0D20740F463
:104010000E94F52EF80180830F5F1F4F2196E8CF95
:10402000F8011082F9CFCF92DF92EF92FF920F93B7
:104030001F93CF93DF937C016A018C01060F171F3A
:10404000EC01CE018796C017D10749F4DF91CF91DB
:104050001F910F91FF90EF90DF90CF900895C032A5
:1040600023E0D20740F4FE01EE19FF09EC0DFD1D1F
:1040700060810E94092F2196E4CF462F853038F4C5
:104080007A3028F4683018F4672F0C94871F90E07A
:1040900080E0089580E1089589EB90E00895EF9223
:1040A000FF920F931F93CF93DF93EC018A017C0162
:1040B000E60EF71ECE01895B9C4FCE15DF0539F465
:1040C000DF91CF911F910F91FF90EF900895C93B21
:1040D000D10540F40E94F52EF80180830F5F1F4F39
:1040E0002196E8CFF8011082F9CFCF92DF92EF92BC
:1040F000FF920F931F93CF93DF937C016A018C0192
:10410000060F171FEC01CE01895B9C4FC017D1072A
:1041100049F4DF91CF911F910F91FF90EF90DF90C5
:10412000CF900895C93BD10540F4FE01EE19FF0977
:10413000EC0DFD1D60810E94092F2196E4CFCF93E5
:10414000DF93C7E4D3E060E0CE010E94092F2196FF
:10415000C11584E0D807B9F7DF91CF910895DF92B8
:10416000EF92FF920F931F93CF93DF9300D000D075
:10417000CDB7DEB7F82E8FE08F1540F08FEF93E0CC
:104180000E94F52E07E413E08823C1F00F900F90F2
:104190000F900F90DF91CF911F910F91FF90EF90B3
:1041A000DF900895011584E0180781F3C8010E948B
:1041B000F52E811101C0FA940F5F1F4FF110F2CF5D
:1041C00019821A821B821C82DD24D39478018FEF1E
:1041D000E81AF80AC8010E94F52E89831A828823FA
:1041E000A9F29FEF980F933078F48A83D9820E5FFB
:1041F0001F4FC7010E94F52E8B83882339F2CE0111
:1042000001960E944806E2CF8701F9CF0895FC018C
:10421000680F791F8FEF91E36E177F0709F40895F8
:104220002191822728E030E087FF06C0880F892788
:1042300021503109C9F7F0CF880FFACF0F931F93A0
:10424000CF93DF93C42FD22FFC0182818823C9F042
:104250004093BB020E94BF269093BA028093B9029A
:1042600080E28C0F883008F050C0C77081E001C038
:10427000880FCA95EAF7DF91CF911F910F910C94A7
:10428000A5071091BB02141335C08091B90290911B
:10429000BA020E94D726883C910560F5C0E2CD0F96
:1042A0001D17B9F080E2810F883040F4177081E06B
:1042B00001C0880F1A95EAF70E94AC07C83048F48D
:1042C00081E09D2F977001C0880F9A95EAF70E94B0
:1042D000A507802F0E949D07C830B8F4D77081E0F1
:1042E00001C0880FDA95EAF7DF91CF911F910F9106
:1042F0000C94AC0780E28C0F883038F4C77081E0F2
:1043000001C0880FCA95EAF7EFCFDF91CF911F91D7
:104310000F9108950F939C01CB01233F4CE5340787
:1043200059F1A8F4283DFCE53F0701F1293D4CE592
:104330003407D1F1273D3C4591F406E221EE41EEF0
:1043400067ED7CE50E941E2180E00F910895253FD6
:10435000FCE53F07E9F0B0F0263F3C45F9F0FC01F1
:104360008281882339F11092BB02EFCF07E225EE5C
:1043700045EE68ED7CE5E6CF06E221EE40EE63EF28
:104380007CE5E0CF07E225EE44EE64EF7CE5DACF92
:1043900006E221EE42EE65EF7CE5D4CF07E225EEA2
:1043A00046EE66EF7CE5CECF08E221E045EE69ED12
:1043B0007CE5C8CF81E0C9CFCF93DF93EC01FB014F
:1043C0008281882309F419C1C230FCE5DF07C0F1FE
:1043D000C6319CE5D90730F09E012A5F3C45293063
:1043E000310570F50E94A60F9093D5028093D402F8
:1043F000C031ECE5DE0709F4CFC008F05BC0C8307F
:104400008CE5D80709F4B6C088F5C430ECE5DE07C2
:1044100009F4A8C0C0F4C2308CE5D80709F49CC0E8
:104420008091D4028260C330DC4509F498C0809149
:10443000D4029091D5020E94B40F0E94F90980E045
:10444000DF91CF9108958091D4028061C630ECE570
:10445000DE0709F484C08091D4028860C730DC454F
:1044600008F47DC08091D402806279C0CC308CE5A4
:10447000D80709F489C070F48091D4028C60CA30E6
:10448000ECE5DE0709F46BC008F478C08091D40233
:104490008E7F65C0CE308CE5D80709F479C0809155
:1044A000D4028B7FCF30DC4508F459C08091D40210
:1044B0008F7E55C0CB3FECE5DE0709F457C030F5E1
:1044C000C3318CE5D80709F46FC078F4C131ECE54D
:1044D000DE0709F465C0C231DC4509F0A8CF0E94AF
:1044E000F9098091D4028F773AC0C5318CE5D8079D
:1044F00009F462C008F476C08091D5028160CA3F99
:10450000DC4509F094CF8093D50291CFCF3FFCE5F5
:10451000DF0709F44DC088F48091D5028D7FCD3F2F
:104520009CE5D90781F38091D5028E7FCE3FDC4593
:1045300050F38091D5028360E6CFC130FDE5DF07FF
:1045400009F459C008F444C080E0C230DD4509F0E8
:104550006ECF0E9439106BCF8091D402816080931E
:10456000D40265CF8091D4028460F9CF8091D502C6
:104570008260C9CF8091D4028064F1CF0E94F90992
:104580008091D4028068EBCF8091D4028D7FE7CFF9
:104590008091D402877FE3CF8091D4028F7DDFCFDB
:1045A0008091D4028F7BDBCF8091D402837FD7CFE1
:1045B0008091D5028C7FA7CF8091D40282FB99276E
:1045C00090F921E0922790FB82F990FB83F9C7CF05
:1045D0008091D502982F909591708E7F892B90FBBA
:1045E00081F991CF0E94F9099091D402892F97FB0C
:1045F00087F98058B4CF81E0ACCF81E021CFCF9351
:10460000DF93EB0186319C4511F50E94D00E9A8113
:10461000992399F08A7A91E009F490E09093BC0292
:10462000811109C089E20E948A0E0E94200F80E059
:10463000DF91CF91089585E3F6CF8091BC0281117F
:1046400004C089E20E94910EF0CF85E3FBCF81E0A8
:10465000EFCF8EE14B9B02C08150E1F74B9BFECF29
:1046600008955B9880E28A95F1F75B9A0895FC01C2
:104670003BE03A95F1F798E020E080E031E040E15E
:104680004A95F1F7880F4B9B02C08160232742E0D7
:104690004A95F1F7000040E14A95F1F7915079F71A
:1046A00090E19A95F1F799B132E03A95F1F700006F
:1046B00040E14A95F1F793FB992790F992272081E1
:1046C000920F90830895EF92FF920F931F93CF93D1
:1046D000DF930F92CDB7DEB719828C017C01E60E15
:1046E000F11C0E151F0561F481E09981911180E0A4
:1046F0000F90DF91CF911F910F91FF90EF90089550
:104700000E942923CE0101960E943723F80181934C
:104710008F01E7CF539A5B9A089553985B9AEB9A6F
:10472000E9E6F0E080818F73808308956150770B14
:1047300091E001C0990F6A95EAF720E031E091110C
:1047400008C0222391F05B9A80E28A95F1F75B988A
:104750000895492F482339F05B9A232740E24A9570
:10476000F1F79695ECCF5B98F9CF5B98EDCFFF9280
:104770000F931F93CF93DF93EC018C01060F111D54
:10478000C017D10731F4DF91CF911F910F91FF90A6
:104790000895F9900E94312368E08F2D0E9496239E
:1047A000EFCF1F920F920FB60F921124EF92FF924C
:1047B0000F931F932F933F934F935F936F937F9329
:1047C0008F939F93AF93BF93EF93FF93CF93DF9319
:1047D0000F92CDB7DEB719820E942923CE01019630
:1047E0000E943723A82FA695A695A695282F229537
:1047F00025709A2F9570290F922F937026952695E4
:10480000920F982797708981982B09F075C0A7306F
:1048100008F072C080E18A95F1F75B9A539AB2E092
:10482000BA95F1F700C05B98EA2EF12CEAE0AE9F52
:10483000D0011124AD5FBE4F1896ED91FC911997F0
:104840003097B1F06091CB017091CC0116962D910B
:104850003C911797260F371F13968D919C911497B3
:10486000680F791F15964C91159712968C910995A2
:104870008AE08E9DF0018F9DF00D1124ED5FFE4FBB
:104880006581662351F02091CB013091CC01868166
:104890009781820F931F0E94B7230E943123F0E17A
:1048A000FA95F1F75B9853985B9A80E18A95F1F756
:1048B0008AE08E9D80018F9D100D11240D5F1E4F8B
:1048C000D80112966C911297662371F12091CB0159
:1048D0003091CC0113968D919C91820F931F0E9471
:1048E0006323D801ED91FC91882311F088E001C089
:1048F00082E080830E9429230F90DF91CF91FF9166
:10490000EF91BF91AF919F918F917F916F915F9147
:104910004F913F912F911F910F91FF90EF900F902A
:104920000FBE0F901F901895ED91FC91DFCF0F9364
:104930001F93CF93DF93EC0107970CF0A9C08AE097
:104940008C9FF0018D9FF00D1124ED5FFE4F808153
:104950009181892B09F49CC0F894539A5B9885E067
:104960008A95F1F700008C2F869585709C2F9570A5
:10497000890F982F937086958695890F8E0193E005
:10498000000F111F9A95E1F7082B0E94312300C0F8
:1049900068E0802F0E949623A0E1AA95F1F7539832
:1049A0005B9A4B9B27C087E090E04B9925C08AE03B
:1049B0008C9F80018D9F100D11240D5F1E4FF801FB
:1049C00065816623A1F12091CB013091CC018681D4
:1049D0009781820F931F0E946323811128C0539AED
:1049E0005B9AD801ED91FC9182E08083789482E01B
:1049F00090E016C000C0D5CF0197B9F4539A5B9AE6
:104A00008AE08C9FF0018D9FF00D1124ED5FFE4F29
:104A10000190F081E02D81E08083789481E090E046
:104A2000DF91CF911F910F91089500C0BECF0E94DA
:104A30002923B0E2BA95F1F75B98539AE0E1EA9541
:104A4000F1F78AE08C9FF0018D9FF00D1124ED5F4E
:104A5000FE4F6281662351F02091CB013091CC0151
:104A600083819481820F931F0E94B7230E94312378
:104A70008AE08C9FF0018D9FF00D1124ED5FFE4FB9
:104A80000190F081E02D1082789490E080E0C8CF12
:104A900084E090E0C5CF9093C3028093C202089552
:104AA0000E94B413811103C08091BD020895E0916A
:104AB000C202F091C302309721F00190F081E02D05
:104AC000099480E00895E091C202F091C30230970A
:104AD00021F00280F381E02D09940895E091C20253
:104AE000F091C302309739F022E0DC012C9304806E
:104AF000F581E02D099408952091C0023091C10202
:104B00002817390771F09093C1028093C002E09199
:104B1000C202F091C302309721F00680F781E02DA8
:104B2000099408952091BE023091BF0228173907D9
:104B300071F09093BF028093BE02E091C202F091A7
:104B4000C302309721F00084F185E02D0994089587
:104B50009C012E5F3F4FAC01485F5F4F80E0241700
:104B6000350709F40895F90191919F019923B9F34B
:104B70008F5FF5CF662349F0FC01329608962191AC
:104B8000261729F0E817F907D1F780E0089581E0AA
:104B900008959C01FC0132969FEF80E041914617F9
:104BA00051F09F3F19F4411101C0982F8F5F86305B
:104BB000A9F79F3F09F40895290F311D97FD3A95F4
:104BC000F90162830895FC0132960896219126131B
:104BD00003C0DF0111971C92E817F907B9F7089590
:104BE0000C94C9250C94E325029626E0FC01119251
:104BF0002A95E9F708951092020310920303109288
:104C00000403109205030895CF92DF92EF92FF9272
:104C10006B017C010E94B41381110EC00E94CB264F
:104C2000C61AD70AE80AF90AC0920203D09203030F
:104C3000E0920403F0920503FF90EF90DF90CF9095
:104C400008950F931F930E94B413882321F01F919E
:104C50000F910C94CB260E94CB2600910203109159
:104C600003032091040330910503600F711F821F1D
:104C7000931F1F910F9108950895089508950C941E
:104C80003E2680910E03843049F10E943F2680E049
:104C90000E9453061092C40288E190E020E40FB60F
:104CA000F894A895809360000FBE2093600083B7AE
:104CB000817F846083BF83B7816083BF7894889548
:104CC00083B78E7F83BF0FB6F894A895809160005C
:104CD000886180936000109260000FBE089508956F
:104CE000CF930E943D260E942F040E946F26C0E0B1
:104CF0008C2F0E946E13811105C0CF5FCA30C1F79F
:104D0000CF91089581E0FCCF08950C9484260E94F1
:104D1000F9090E9450250E9453060C9485261F9283
:104D20001FB61F9211248F939F93AF93BF938091CF
:104D3000C402811113C08091060390910703A091D2
:104D40000803B09109034196A11DB11D809306038C
:104D500090930703A0930803B0930903BF91AF9109
:104D60009F918F911F901FBE1F90189582E084BD68
:104D700093E095BD9AEF97BD80936E0008952FB78D
:104D8000F8948091060390910703A0910803B091D5
:104D900009032FBF08952FB7F8946091060370910F
:104DA000070380910803909109032FBF08959C0188
:104DB0004FB7F8948091060390910703A0910803E0
:104DC000B09109034FBF821B930B0895CF92DF92DE
:104DD000EF92FF922FB7F894C0900603D09007038C
:104DE000E0900803F09009032FBFA7019601261B4E
:104DF000370B480B590BCA01B901FF90EF90DF90B8
:104E0000CF90089578941F921FB61F9211248F930C
:104E10009F93AF93BF938091060390910703A09156
:104E20000803B09109030196A11DB11D80930603EB
:104E300090930703A0930803B0930903BF91AF9128
:104E40009F918F911F901FBE1F90189587E797E73E
:104E5000909301088093000888E19AE00FB6F894D7
:104E6000A895809360000FBE90936000FFCF909351
:104E7000EF018093EE0108958091D0020895909102
:104E80000E03943029F58093C5027093C702609396
:104E9000C6029093E9008FEF9091E800815095FD54
:104EA00006C095ED9A95F1F700008111F5CF80913C
:104EB000E80085FF0DC050E040E063E070E085EC65
:104EC00092E00E94B8298091E8008E778093E800F4
:104ED0000895BC0184E00C943F27BC0183E00C944E
:104EE0003F279C0184E08093E9009FEF8091E800D8
:104EF000915085FD06C085ED8A95F1F7000091116E
:104F0000F5CF8091E80085FF0CC050E040E066E0FE
:104F100070E0C9010E94B8298091E8008E778093E3
:104F2000E8000895CF93DF93EC0181E08093E900DE
:104F30008FEF9091E800815095FD06C095ED9A9510
:104F4000F1F700008111F5CF8091E80085FF14C0D2
:104F500050E040E068E070E0CE010E94B829809106
:104F6000E8008E778093E80088E0FE01A8ECB2E0CC
:104F700001900D928A95E1F7DF91CF910895CF933B
:104F8000FC01603221F580910E03843001F5C0915F
:104F9000E900CF702091EC00922F917020FD90E8F5
:104FA000C92B82E08093E9008091E80080FF0CC06B
:104FB00050E040E060E270E0CF010E94B8298091AB
:104FC000E8008E778093E800CF70C093E900CF911E
:104FD000089580910D03811109C00E94972B0E94B2
:104FE000F42B8091E20084608093E2000895109297
:104FF0000D03089508950895089542E061EC81E05D
:105000000E94132B42E261EC84E00E94132B42E2E7
:1050100061EC82E00E94132B42E260EC83E00C948E
:10502000132B80911003833009F461C030F4813078
:10503000D1F1823009F49DC008958A3009F489C005
:105040008B3009F46FC0893009F050C080910F0394
:10505000813209F04BC080911303909114030097A3
:1050600019F0029709F042C08091E800877F809391
:10507000E8008091E80082FF35C09091F3008091B4
:10508000F200029729F48091F1008B7F813021F4A6
:105090008091F1008093D0028091E8008B7780931B
:1050A000E8000C94472B80910F03813AF9F480912A
:1050B000E800877F8093E8008091130390911403A8
:1050C000892B61F468E088EC92E070E00E94562A37
:1050D0008091E8008B778093E800089560E090E08D
:1050E00080E0F3CF80910E038111C3CF08958091AA
:1050F0000F03813AD9F78091130390911403892B00
:10510000A9F78091E800877F8093E8008091E8000C
:1051100080FFFCCF809156018093F1008091E800E0
:105120008E77BDCF80910F03813201F780911303F9
:1051300090911403892BD1F68091E800877F8093AA
:10514000E8000E94472B80911103809356010C9434
:10515000F90980910F03813249F68091E800877F39
:105160008093E8000E94472B809112038093D10224
:10517000089580910F03813A09F0B8CF8091E8003B
:10518000877F8093E8008091E80080FFFCCF8091CA
:10519000D102C2CF84B7877F84BF0FB6F894A89599
:1051A00080916000886180936000109260000FBE63
:1051B00080E890E00FB6F8948093610090936100CE
:1051C0000FBE0C9472100E94972B0E94F42BE2EEFB
:1051D000F0E080818460808378940E947D2E0E941C
:1051E00084108CE491E00C944B25CF93DF93CDB7E2
:1051F000DEB7A0970FB6F894DEBF0FBECDBF80918B
:105200000E03853031F480910E03853091F10E94B8
:1052100087260E94941080910E03843009F583E064
:105220008093E9008091E80082FF1AC08091E80035
:1052300090E085FF09C050E040E060E270E0CE0100
:1052400001960E94072A91E08091E8008B77809375
:10525000E800992329F060E2CE0101960E94B51E74
:10526000A0960FB6F894DEBF0FBECDBFDF91CF91F1
:1052700008950E94412680910C03882321F20E9408
:105280007026882309F4BFCF0E94A2290E94F90941
:10529000BACF0C944B29292F33272330310521F124
:1052A00068F42130310509F443C02230310509F496
:1052B00044C090E080E030E020E026C0213231059B
:1052C00051F122323105A9F76330710590F7FB01E6
:1052D000EE0FFF1FEE51FE4F2081318161527E4F54
:1052E000FB01808190E010C099278130910581F009
:1052F000009729F00297E9F6ECEFF2E002C0E8E24D
:10530000F3E0849190E09F01FA01318320830895B6
:10531000EEE0F3E0F6CF6330710558F6660F771FC5
:10532000FB01E851FE4F2081318189E090E0ECCF14
:1053300082E190E027E833E0E7CF8BE590E02CE2D4
:1053400033E0E2CF80E189BD82E189BD09B400FE8E
:10535000FDCF8091D8008F7D8093D8008091E000B0
:1053600082608093E0008091E00081FDFCCF089591
:10537000AF92BF92CF92DF92FF920F931F93CF9382
:10538000DF936C01EB018A010E94662BF82E8111DC
:1053900023C00115110539F0F80180819181C81BE6
:1053A000D90BC80ED91EB12CA12C2097A9F0809141
:1053B000E80085FD22C08091E8008E778093E800A8
:1053C00001151105A1F0F80180819181A80EB91E87
:1053D000B182A08285E0F82E8F2DDF91CF911F91B1
:1053E0000F91FF90DF90CF90BF90AF9008950E94F3
:1053F000662B8823D1F2F82EEFCFF60181916F0151
:105400008093F1002197FFEFAF1ABF0ACECFAF9282
:10541000BF92CF92DF92FF920F931F93CF93DF93B0
:105420006C01EB018A010E94662BF82E811123C0CA
:105430000115110539F0F80180819181C81BD90B44
:10544000C80ED91EB12CA12C2097A9F08091E8009C
:1054500085FD22C08091E8008B778093E8000115DC
:105460001105A1F0F80180819181A80EB91EB182C9
:10547000A08285E0F82E8F2DDF91CF911F910F91A3
:10548000FF90DF90CF90BF90AF9008950E94662B61
:105490008823D1F2F82EEFCF8091F100F6018193AD
:1054A0006F012197FFEFAF1ABF0ACECFFC018091A9
:1054B00015039091160386179707A0F061157105E3
:1054C00029F49091E8009E779093E80090E06115B0
:1054D000710551F4911108C08091E80082FF34C039
:1054E00080E00895BC01F2CF80910E038823C1F1C2
:1054F0008530C1F18091E80083FD30C08091E800E3
:1055000082FDEACF8091E80080FFE1CF8091F30037
:105510002091F200382F6115710519F028303105FE
:1055200058F091E02830310509F090E02091E80032
:105530002E772093E800CBCF81918093F1006150CA
:1055400071092F5F3F4FE7CF80910E03882341F011
:10555000853041F08091E80083FFBECF81E008955F
:1055600082E0089583E00895FC01809115039091F5
:10557000160386179707A0F06115710529F480912D
:10558000E8008E778093E80090E06115710551F492
:10559000911108C08091E80082FF35C080E0089535
:1055A000BC01F2CF80910E038823C9F18530C9F187
:1055B0008091E80083FD31C08091E80082FDEACF50
:1055C0008091E80080FFE1CF8091F3002091F2000C
:1055D000382F6115710519F02830310558F091E028
:1055E0002830310509F090E08091E8008E778093B3
:1055F000E800CBCF84918093F1003196615071091E
:105600002F5F3F4FE6CF80910E03882341F0853016
:1056100041F08091E80083FFBDCF81E0089582E0F2
:10562000089583E00895982F973028F08F70809325
:10563000E90081E008959093E900242F762F50E04F
:10564000981731F07091EC002091ED005091F0002E
:1056500021FD02C09F5FE8CF3091EB003E7F309389
:10566000EB003091ED003D7F3093ED003091EB0089
:1056700031603093EB007093EC002093ED00509379
:10568000F0002091EE0027FDE5CF80E008958091A5
:105690000F0387FF13C08091E80082FF06C080914E
:1056A000E8008B778093E80004C080910E0381119D
:1056B000F2CF089580910E038823D9F38091E800FA
:1056C00080FFF8CF8091E8008E77ECCF2091E40046
:1056D0003091E50095E6A9012091EC00822F8170C0
:1056E00020FF06C08091E80080FF06C080E008959A
:1056F0002091E80022FD1AC080910E03882389F0D2
:10570000853089F08091EB0085FD0FC02091E40089
:105710003091E50042175307F9F29150E1F684E029
:10572000089582E0089583E0089581E008950E943D
:10573000052C0E940D2CE0EEF0E0808181608083DA
:10574000E8EDF0E080818F77808319BCA7EDB0E0B1
:105750008C918E7F8C9380818F7E808310920D033D
:1057600008950F931F93CF93DF930E94052C0E94FF
:105770000D2CC8EDD0E088818F7788838881806880
:10578000888388818F7D888319BC10920E031092C4
:105790000A0310920C0310920B0300EE10E0F801C4
:1057A00080818B7F808388818160888342E060E094
:1057B00080E00E94132BE1EEF0E080818E7F8083F9
:1057C000E2EEF0E080818160808380818860808368
:1057D000F80180818E7F8083888180618883DF915A
:1057E000CF911F910F910895E8EDF0E080818F7EB9
:1057F0008083E7EDF0E080818160808384E082BF78
:1058000081E080930D030C94B12BE8EDF0E08081F2
:105810008E7F80831092E20008951092DA00109239
:10582000E10008951F920F920FB60F9211242F934B
:105830003F934F935F936F937F938F939F93AF9318
:10584000BF93EF93FF938091E10082FF0BC08091A3
:10585000E20082FF07C08091E1008B7F8093E1002E
:105860000E947C2E8091DA0080FF19C08091D800C0
:1058700080FF15C08091DA008E7F8093DA008091DE
:10588000D90080FF96C080E189BD82E189BD09B45D
:1058900000FEFDCF81E080930E030E94E9278091F6
:1058A000E10080FF19C08091E20080FF15C0809167
:1058B000E2008E7F8093E2008091E200806180931D
:1058C000E2008091D80080628093D80019BC85E006
:1058D00080930E030E94FB278091E10084FF2BC080
:1058E0008091E20084FF27C080E189BD82E189BD0B
:1058F00089B5982F917080FFFBCF8091D8008F7D64
:105900008093D8008091E1008F7E8093E1008091A8
:10591000E2008F7E8093E2008091E20081608093BC
:10592000E20080910A03882309F449C084E080934F
:105930000E030E94FC278091E10083FF29C0809123
:10594000E20083FF25C08091E100877F8093E10022
:1059500082E080930E0310920A038091E1008E7F13
:105960008093E1008091E2008E7F8093E20080913D
:10597000E20080618093E20042E060E080E00E940B
:10598000132B8091F00088608093F0000E94FA272A
:10599000FF91EF91BF91AF919F918F917F916F9107
:1059A0005F914F913F912F910F900FBE0F901F90DD
:1059B000189519BC10920E030E94F72770CF8091A2
:1059C000E30087FD93E090930E03B3CF1F920F92F5
:1059D0000FB60F9211242F933F934F935F936F93C2
:1059E0007F938F939F93AF93BF93CF93DF93EF9367
:1059F000FF93D091E900DF708091EC00C82FC17057
:105A000080FDC0E81092E9008091F000877F8093CC
:105A1000F00078940E942A2D1092E9008091F00005
:105A200088608093F000CD2BCF70C093E900FF9188
:105A3000EF91DF91CF91BF91AF919F918F917F9126
:105A40006F915F914F913F912F910F900FBE0F90EB
:105A50001F9018951F93CF93DF93CDB7DEB7AA970A
:105A60000FB6F894DEBF0FBECDBF8FE093E020915C
:105A7000F100FC012193CF01F3E087319F07B9F7D3
:105A80000E9411288091E80083FF1EC180910F03BE
:105A9000909110039A3008F017C1E92FF0E0E05917
:105AA000F04D0C94D22E803899F0823809F00CC158
:105AB000809113038F70873008F006C18093E9004E
:105AC0008091EB0085FB882780F91092E90006C0E1
:105AD00080910B0390910C03911182609091E800EA
